{
  "contractName": "Authenticator",
  "abi": [
    {
      "inputs": [],
      "stateMutability": "nonpayable",
      "type": "constructor"
    },
    {
      "inputs": [],
      "name": "admin",
      "outputs": [
        {
          "internalType": "address",
          "name": "",
          "type": "address"
        }
      ],
      "stateMutability": "view",
      "type": "function",
      "constant": true
    },
    {
      "inputs": [
        {
          "internalType": "address",
          "name": "",
          "type": "address"
        }
      ],
      "name": "tokens",
      "outputs": [
        {
          "components": [
            {
              "internalType": "address",
              "name": "id",
              "type": "address"
            },
            {
              "internalType": "string",
              "name": "name",
              "type": "string"
            }
          ],
          "internalType": "struct sharedStructs.User",
          "name": "user",
          "type": "tuple"
        },
        {
          "internalType": "string",
          "name": "token",
          "type": "string"
        },
        {
          "internalType": "uint256",
          "name": "expireDate",
          "type": "uint256"
        }
      ],
      "stateMutability": "view",
      "type": "function",
      "constant": true
    },
    {
      "inputs": [
        {
          "internalType": "uint256",
          "name": "",
          "type": "uint256"
        }
      ],
      "name": "userAddresses",
      "outputs": [
        {
          "internalType": "address",
          "name": "",
          "type": "address"
        }
      ],
      "stateMutability": "view",
      "type": "function",
      "constant": true
    },
    {
      "inputs": [
        {
          "components": [
            {
              "internalType": "address",
              "name": "id",
              "type": "address"
            },
            {
              "internalType": "string",
              "name": "name",
              "type": "string"
            }
          ],
          "internalType": "struct sharedStructs.User",
          "name": "user",
          "type": "tuple"
        },
        {
          "internalType": "string",
          "name": "token",
          "type": "string"
        },
        {
          "internalType": "uint256",
          "name": "expireDate",
          "type": "uint256"
        }
      ],
      "name": "addToken",
      "outputs": [],
      "stateMutability": "nonpayable",
      "type": "function"
    },
    {
      "inputs": [],
      "name": "getAllTokens",
      "outputs": [
        {
          "components": [
            {
              "components": [
                {
                  "internalType": "address",
                  "name": "id",
                  "type": "address"
                },
                {
                  "internalType": "string",
                  "name": "name",
                  "type": "string"
                }
              ],
              "internalType": "struct sharedStructs.User",
              "name": "user",
              "type": "tuple"
            },
            {
              "internalType": "string",
              "name": "token",
              "type": "string"
            },
            {
              "internalType": "uint256",
              "name": "expireDate",
              "type": "uint256"
            }
          ],
          "internalType": "struct Authenticator.ProofOfIdentity[]",
          "name": "",
          "type": "tuple[]"
        }
      ],
      "stateMutability": "view",
      "type": "function",
      "constant": true
    },
    {
      "inputs": [
        {
          "components": [
            {
              "internalType": "address",
              "name": "id",
              "type": "address"
            },
            {
              "internalType": "string",
              "name": "name",
              "type": "string"
            }
          ],
          "internalType": "struct sharedStructs.User",
          "name": "user",
          "type": "tuple"
        }
      ],
      "name": "getTokenByUser",
      "outputs": [
        {
          "components": [
            {
              "components": [
                {
                  "internalType": "address",
                  "name": "id",
                  "type": "address"
                },
                {
                  "internalType": "string",
                  "name": "name",
                  "type": "string"
                }
              ],
              "internalType": "struct sharedStructs.User",
              "name": "user",
              "type": "tuple"
            },
            {
              "internalType": "string",
              "name": "token",
              "type": "string"
            },
            {
              "internalType": "uint256",
              "name": "expireDate",
              "type": "uint256"
            }
          ],
          "internalType": "struct Authenticator.ProofOfIdentity",
          "name": "",
          "type": "tuple"
        }
      ],
      "stateMutability": "view",
      "type": "function",
      "constant": true
    }
  ],
  "bytecode": "0x608060405234801561000f575f80fd5b503360025f6101000a81548173ffffffffffffffffffffffffffffffffffffffff021916908373ffffffffffffffffffffffffffffffffffffffff1602179055506117518061005d5f395ff3fe608060405234801561000f575f80fd5b5060043610610060575f3560e01c80632a5c792a14610064578063502c9bd514610082578063b4986990146100b2578063e4860339146100e2578063f793415b14610114578063f851a44014610130575b5f80fd5b61006c61014e565b6040516100799190610dc2565b60405180910390f35b61009c60048036038101906100979190610e1d565b610407565b6040516100a99190610e57565b60405180910390f35b6100cc60048036038101906100c79190611037565b610442565b6040516100d991906110d2565b60405180910390f35b6100fc60048036038101906100f791906110f2565b6106fc565b60405161010b939291906111ae565b60405180910390f35b61012e600480360381019061012991906111f1565b610895565b005b610138610b1e565b6040516101459190610e57565b60405180910390f35b60605f60018054905067ffffffffffffffff8111156101705761016f610e74565b5b6040519080825280602002602001820160405280156101a957816020015b610196610b43565b81526020019060019003908161018e5790505b5090505f5b6001805490508110156103ff575f80600183815481106101d1576101d0611279565b5b905f5260205f20015f9054906101000a900473ffffffffffffffffffffffffffffffffffffffff1673ffffffffffffffffffffffffffffffffffffffff1673ffffffffffffffffffffffffffffffffffffffff1681526020019081526020015f206040518060600160405290815f82016040518060400160405290815f82015f9054906101000a900473ffffffffffffffffffffffffffffffffffffffff1673ffffffffffffffffffffffffffffffffffffffff1673ffffffffffffffffffffffffffffffffffffffff1681526020016001820180546102b0906112d3565b80601f01602080910402602001604051908101604052809291908181526020018280546102dc906112d3565b80156103275780601f106102fe57610100808354040283529160200191610327565b820191905f5260205f20905b81548152906001019060200180831161030a57829003601f168201915b5050505050815250508152602001600282018054610344906112d3565b80601f0160208091040260200160405190810160405280929190818152602001828054610370906112d3565b80156103bb5780601f10610392576101008083540402835291602001916103bb565b820191905f5260205f20905b81548152906001019060200180831161039e57829003601f168201915b505050505081526020016003820154815250508282815181106103e1576103e0611279565b5b602002602001018190525080806103f790611330565b9150506101ae565b508091505090565b60018181548110610416575f80fd5b905f5260205f20015f915054906101000a900473ffffffffffffffffffffffffffffffffffffffff1681565b61044a610b43565b5f73ffffffffffffffffffffffffffffffffffffffff165f80845f015173ffffffffffffffffffffffffffffffffffffffff1673ffffffffffffffffffffffffffffffffffffffff1681526020019081526020015f205f015f015f9054906101000a900473ffffffffffffffffffffffffffffffffffffffff1673ffffffffffffffffffffffffffffffffffffffff160361051a576040517f08c379a0000000000000000000000000000000000000000000000000000000008152600401610511906113c1565b60405180910390fd5b5f80835f015173ffffffffffffffffffffffffffffffffffffffff1673ffffffffffffffffffffffffffffffffffffffff1681526020019081526020015f206040518060600160405290815f82016040518060400160405290815f82015f9054906101000a900473ffffffffffffffffffffffffffffffffffffffff1673ffffffffffffffffffffffffffffffffffffffff1673ffffffffffffffffffffffffffffffffffffffff1681526020016001820180546105d7906112d3565b80601f0160208091040260200160405190810160405280929190818152602001828054610603906112d3565b801561064e5780601f106106255761010080835404028352916020019161064e565b820191905f5260205f20905b81548152906001019060200180831161063157829003601f168201915b505050505081525050815260200160028201805461066b906112d3565b80601f0160208091040260200160405190810160405280929190818152602001828054610697906112d3565b80156106e25780601f106106b9576101008083540402835291602001916106e2565b820191905f5260205f20905b8154815290600101906020018083116106c557829003601f168201915b505050505081526020016003820154815250509050919050565b5f602052805f5260405f205f91509050805f016040518060400160405290815f82015f9054906101000a900473ffffffffffffffffffffffffffffffffffffffff1673ffffffffffffffffffffffffffffffffffffffff1673ffffffffffffffffffffffffffffffffffffffff16815260200160018201805461077e906112d3565b80601f01602080910402602001604051908101604052809291908181526020018280546107aa906112d3565b80156107f55780601f106107cc576101008083540402835291602001916107f5565b820191905f5260205f20905b8154815290600101906020018083116107d857829003601f168201915b5050505050815250509080600201805461080e906112d3565b80601f016020809104026020016040519081016040528092919081815260200182805461083a906112d3565b80156108855780601f1061085c57610100808354040283529160200191610885565b820191905f5260205f20905b81548152906001019060200180831161086857829003601f168201915b5050505050908060030154905083565b5f73ffffffffffffffffffffffffffffffffffffffff165f80855f015173ffffffffffffffffffffffffffffffffffffffff1673ffffffffffffffffffffffffffffffffffffffff1681526020019081526020015f205f015f015f9054906101000a900473ffffffffffffffffffffffffffffffffffffffff1673ffffffffffffffffffffffffffffffffffffffff1614610965576040517f08c379a000000000000000000000000000000000000000000000000000000000815260040161095c90611429565b60405180910390fd5b3373ffffffffffffffffffffffffffffffffffffffff16835f015173ffffffffffffffffffffffffffffffffffffffff16146109d6576040517f08c379a00000000000000000000000000000000000000000000000000000000081526004016109cd90611491565b60405180910390fd5b6040518060600160405280848152602001838152602001828152505f80855f015173ffffffffffffffffffffffffffffffffffffffff1673ffffffffffffffffffffffffffffffffffffffff1681526020019081526020015f205f820151815f015f820151815f015f6101000a81548173ffffffffffffffffffffffffffffffffffffffff021916908373ffffffffffffffffffffffffffffffffffffffff1602179055506020820151816001019081610a90919061164c565b5050506020820151816002019081610aa8919061164c565b50604082015181600301559050506001835f0151908060018154018082558091505060019003905f5260205f20015f9091909190916101000a81548173ffffffffffffffffffffffffffffffffffffffff021916908373ffffffffffffffffffffffffffffffffffffffff160217905550505050565b60025f9054906101000a900473ffffffffffffffffffffffffffffffffffffffff1681565b6040518060600160405280610b56610b69565b8152602001606081526020015f81525090565b60405180604001604052805f73ffffffffffffffffffffffffffffffffffffffff168152602001606081525090565b5f81519050919050565b5f82825260208201905092915050565b5f819050602082019050919050565b5f73ffffffffffffffffffffffffffffffffffffffff82169050919050565b5f610bea82610bc1565b9050919050565b610bfa81610be0565b82525050565b5f81519050919050565b5f82825260208201905092915050565b5f5b83811015610c37578082015181840152602081019050610c1c565b5f8484015250505050565b5f601f19601f8301169050919050565b5f610c5c82610c00565b610c668185610c0a565b9350610c76818560208601610c1a565b610c7f81610c42565b840191505092915050565b5f604083015f830151610c9f5f860182610bf1565b5060208301518482036020860152610cb78282610c52565b9150508091505092915050565b5f819050919050565b610cd681610cc4565b82525050565b5f606083015f8301518482035f860152610cf68282610c8a565b91505060208301518482036020860152610d108282610c52565b9150506040830151610d256040860182610ccd565b508091505092915050565b5f610d3b8383610cdc565b905092915050565b5f602082019050919050565b5f610d5982610b98565b610d638185610ba2565b935083602082028501610d7585610bb2565b805f5b85811015610db05784840389528151610d918582610d30565b9450610d9c83610d43565b925060208a01995050600181019050610d78565b50829750879550505050505092915050565b5f6020820190508181035f830152610dda8184610d4f565b905092915050565b5f604051905090565b5f80fd5b5f80fd5b610dfc81610cc4565b8114610e06575f80fd5b50565b5f81359050610e1781610df3565b92915050565b5f60208284031215610e3257610e31610deb565b5b5f610e3f84828501610e09565b91505092915050565b610e5181610be0565b82525050565b5f602082019050610e6a5f830184610e48565b92915050565b5f80fd5b7f4e487b71000000000000000000000000000000000000000000000000000000005f52604160045260245ffd5b610eaa82610c42565b810181811067ffffffffffffffff82111715610ec957610ec8610e74565b5b80604052505050565b5f610edb610de2565b9050610ee78282610ea1565b919050565b5f80fd5b610ef981610be0565b8114610f03575f80fd5b50565b5f81359050610f1481610ef0565b92915050565b5f80fd5b5f80fd5b5f67ffffffffffffffff821115610f3c57610f3b610e74565b5b610f4582610c42565b9050602081019050919050565b828183375f83830152505050565b5f610f72610f6d84610f22565b610ed2565b905082815260208101848484011115610f8e57610f8d610f1e565b5b610f99848285610f52565b509392505050565b5f82601f830112610fb557610fb4610f1a565b5b8135610fc5848260208601610f60565b91505092915050565b5f60408284031215610fe357610fe2610e70565b5b610fed6040610ed2565b90505f610ffc84828501610f06565b5f83015250602082013567ffffffffffffffff81111561101f5761101e610eec565b5b61102b84828501610fa1565b60208301525092915050565b5f6020828403121561104c5761104b610deb565b5b5f82013567ffffffffffffffff81111561106957611068610def565b5b61107584828501610fce565b91505092915050565b5f606083015f8301518482035f8601526110988282610c8a565b915050602083015184820360208601526110b28282610c52565b91505060408301516110c76040860182610ccd565b508091505092915050565b5f6020820190508181035f8301526110ea818461107e565b905092915050565b5f6020828403121561110757611106610deb565b5b5f61111484828501610f06565b91505092915050565b5f604083015f8301516111325f860182610bf1565b506020830151848203602086015261114a8282610c52565b9150508091505092915050565b5f82825260208201905092915050565b5f61117182610c00565b61117b8185611157565b935061118b818560208601610c1a565b61119481610c42565b840191505092915050565b6111a881610cc4565b82525050565b5f6060820190508181035f8301526111c6818661111d565b905081810360208301526111da8185611167565b90506111e9604083018461119f565b949350505050565b5f805f6060848603121561120857611207610deb565b5b5f84013567ffffffffffffffff81111561122557611224610def565b5b61123186828701610fce565b935050602084013567ffffffffffffffff81111561125257611251610def565b5b61125e86828701610fa1565b925050604061126f86828701610e09565b9150509250925092565b7f4e487b71000000000000000000000000000000000000000000000000000000005f52603260045260245ffd5b7f4e487b71000000000000000000000000000000000000000000000000000000005f52602260045260245ffd5b5f60028204905060018216806112ea57607f821691505b6020821081036112fd576112fc6112a6565b5b50919050565b7f4e487b71000000000000000000000000000000000000000000000000000000005f52601160045260245ffd5b5f61133a82610cc4565b91507fffffffffffffffffffffffffffffffffffffffffffffffffffffffffffffffff820361136c5761136b611303565b5b600182019050919050565b7f55736572206e6f7420666f756e640000000000000000000000000000000000005f82015250565b5f6113ab600e83611157565b91506113b682611377565b602082019050919050565b5f6020820190508181035f8301526113d88161139f565b9050919050565b7f5573657220616c726561647920726567697374657265640000000000000000005f82015250565b5f611413601783611157565b915061141e826113df565b602082019050919050565b5f6020820190508181035f83015261144081611407565b9050919050565b7f43616e206f6e6c7920726567697374657220796f757273656c660000000000005f82015250565b5f61147b601a83611157565b915061148682611447565b602082019050919050565b5f6020820190508181035f8301526114a88161146f565b9050919050565b5f819050815f5260205f209050919050565b5f6020601f8301049050919050565b5f82821b905092915050565b5f6008830261150b7fffffffffffffffffffffffffffffffffffffffffffffffffffffffffffffffff826114d0565b61151586836114d0565b95508019841693508086168417925050509392505050565b5f819050919050565b5f61155061154b61154684610cc4565b61152d565b610cc4565b9050919050565b5f819050919050565b61156983611536565b61157d61157582611557565b8484546114dc565b825550505050565b5f90565b611591611585565b61159c818484611560565b505050565b5b818110156115bf576115b45f82611589565b6001810190506115a2565b5050565b601f821115611604576115d5816114af565b6115de846114c1565b810160208510156115ed578190505b6116016115f9856114c1565b8301826115a1565b50505b505050565b5f82821c905092915050565b5f6116245f1984600802611609565b1980831691505092915050565b5f61163c8383611615565b9150826002028217905092915050565b61165582610c00565b67ffffffffffffffff81111561166e5761166d610e74565b5b61167882546112d3565b6116838282856115c3565b5f60209050601f8311600181146116b4575f84156116a2578287015190505b6116ac8582611631565b865550611713565b601f1984166116c2866114af565b5f5b828110156116e9578489015182556001820191506020850194506020810190506116c4565b868310156117065784890151611702601f891682611615565b8355505b6001600288020188555050505b50505050505056fea2646970667358221220e8ec8adaa9a4cba18dbd7a39721066ab2908c1eebd1fb35b12609104a641378c64736f6c63430008150033",
  "immutableReferences": {},
  "source": "// SPDX-License-Identifier: MIT\npragma solidity >=0.8.0;\n\n/**\n* @title Authenticator\n* @author Ismael Rabanal Martn, Eugenio Romero Ciudad\n* @notice Implementation of a RBAC contract. Updates from Solidity 0.6.0 to 0.8.0 by Eugenio Romero Ciudad\n*/\n\nimport \"./Structs.sol\";\n\ncontract Authenticator {\n    \n    struct ProofOfIdentity {\n        sharedStructs.User user;\n        string token;\n        uint256 expireDate;\n    }\n\n    mapping(address => ProofOfIdentity) public tokens;\n    address[] public userAddresses;\n    address public admin;\n\n    constructor() {\n        admin = msg.sender;\n    }\n\n    modifier isAdmin() {\n        require(msg.sender == admin, \"Operation only valid for admin\");\n        _;\n    }\n    \n    function addToken(sharedStructs.User memory user, string memory token, uint256 expireDate) public {\n        require(tokens[user.id].user.id == address(0), \"User already registered\");\n        require(user.id == msg.sender, \"Can only register yourself\");\n        \n        tokens[user.id] = ProofOfIdentity({user: user, token: token, expireDate: expireDate});\n        userAddresses.push(user.id);\n    }\n    \n    function getAllTokens() public view returns(ProofOfIdentity[] memory) {\n        ProofOfIdentity[] memory allTokens = new ProofOfIdentity[](userAddresses.length);\n        for (uint i = 0; i < userAddresses.length; i++) {\n            allTokens[i] = tokens[userAddresses[i]];\n        }\n        return allTokens;\n    }\n    \n    function getTokenByUser(sharedStructs.User memory user) public view returns(ProofOfIdentity memory) {\n        require(tokens[user.id].user.id != address(0), \"User not found\");\n        return tokens[user.id];\n    }\n}\n",
  "sourcePath": "/home/alarcos/Documentos/GitHub/ALBA-ethereum/Authenticator/contracts/Authenticator.sol",
  "compiler": {
    "name": "solc",
    "version": "0.8.21+commit.d9974bed.Emscripten.clang"
  },
  "schemaVersion": "3.4.16",
  "updatedAt": "2024-09-26T09:06:44.983Z",
  "networkType": "ethereum",
  "devdoc": {
    "kind": "dev",
    "methods": {},
    "version": 1
  },
  "userdoc": {
    "kind": "user",
    "methods": {},
    "version": 1
  }
}