{
  "contractName": "Authenticator",
  "abi": [
    {
      "inputs": [],
      "stateMutability": "nonpayable",
      "type": "constructor"
    },
    {
      "inputs": [
        {
          "components": [
            {
              "internalType": "address",
              "name": "id",
              "type": "address"
            },
            {
              "internalType": "string",
              "name": "name",
              "type": "string"
            }
          ],
          "internalType": "struct sharedStructs.User",
          "name": "user",
          "type": "tuple"
        },
        {
          "internalType": "string",
          "name": "token",
          "type": "string"
        },
        {
          "internalType": "uint256",
          "name": "expireDate",
          "type": "uint256"
        }
      ],
      "name": "addToken",
      "outputs": [],
      "stateMutability": "nonpayable",
      "type": "function"
    },
    {
      "inputs": [],
      "name": "getAllTokens",
      "outputs": [
        {
          "components": [
            {
              "components": [
                {
                  "internalType": "address",
                  "name": "id",
                  "type": "address"
                },
                {
                  "internalType": "string",
                  "name": "name",
                  "type": "string"
                }
              ],
              "internalType": "struct sharedStructs.User",
              "name": "user",
              "type": "tuple"
            },
            {
              "internalType": "string",
              "name": "token",
              "type": "string"
            },
            {
              "internalType": "uint256",
              "name": "expireDate",
              "type": "uint256"
            }
          ],
          "internalType": "struct Authenticator.ProofOfIdentity[]",
          "name": "tokens",
          "type": "tuple[]"
        }
      ],
      "stateMutability": "view",
      "type": "function",
      "constant": true
    },
    {
      "inputs": [
        {
          "components": [
            {
              "internalType": "address",
              "name": "id",
              "type": "address"
            },
            {
              "internalType": "string",
              "name": "name",
              "type": "string"
            }
          ],
          "internalType": "struct sharedStructs.User",
          "name": "user",
          "type": "tuple"
        }
      ],
      "name": "getTokenByUser",
      "outputs": [
        {
          "components": [
            {
              "components": [
                {
                  "internalType": "address",
                  "name": "id",
                  "type": "address"
                },
                {
                  "internalType": "string",
                  "name": "name",
                  "type": "string"
                }
              ],
              "internalType": "struct sharedStructs.User",
              "name": "user",
              "type": "tuple"
            },
            {
              "internalType": "string",
              "name": "token",
              "type": "string"
            },
            {
              "internalType": "uint256",
              "name": "expireDate",
              "type": "uint256"
            }
          ],
          "internalType": "struct Authenticator.ProofOfIdentity",
          "name": "",
          "type": "tuple"
        }
      ],
      "stateMutability": "view",
      "type": "function",
      "constant": true
    }
  ],
  "bytecode": "0x608060405234801561000f575f80fd5b503360015f6101000a81548173ffffffffffffffffffffffffffffffffffffffff021916908373ffffffffffffffffffffffffffffffffffffffff1602179055506110718061005d5f395ff3fe608060405234801561000f575f80fd5b506004361061003f575f3560e01c80632a5c792a14610043578063b498699014610061578063f793415b14610091575b5f80fd5b61004b6100ad565b60405161005891906108f4565b60405180910390f35b61007b60048036038101906100769190610aec565b610299565b6040516100889190610b87565b60405180910390f35b6100ab60048036038101906100a69190610bd1565b61051a565b005b60605f805480602002602001604051908101604052809291908181526020015f905b82821015610290578382905f5260205f2090600402016040518060600160405290815f82016040518060400160405290815f82015f9054906101000a900473ffffffffffffffffffffffffffffffffffffffff1673ffffffffffffffffffffffffffffffffffffffff1673ffffffffffffffffffffffffffffffffffffffff16815260200160018201805461016390610c86565b80601f016020809104026020016040519081016040528092919081815260200182805461018f90610c86565b80156101da5780601f106101b1576101008083540402835291602001916101da565b820191905f5260205f20905b8154815290600101906020018083116101bd57829003601f168201915b50505050508152505081526020016002820180546101f790610c86565b80601f016020809104026020016040519081016040528092919081815260200182805461022390610c86565b801561026e5780601f106102455761010080835404028352916020019161026e565b820191905f5260205f20905b81548152906001019060200180831161025157829003601f168201915b50505050508152602001600382015481525050815260200190600101906100cf565b50505050905090565b6102a1610675565b6102a9610675565b5f805b5f8054905081101561050f57845f015173ffffffffffffffffffffffffffffffffffffffff165f82815481106102e5576102e4610cb6565b5b905f5260205f2090600402015f015f015f9054906101000a900473ffffffffffffffffffffffffffffffffffffffff1673ffffffffffffffffffffffffffffffffffffffff16036104fc575f818154811061034357610342610cb6565b5b905f5260205f2090600402016040518060600160405290815f82016040518060400160405290815f82015f9054906101000a900473ffffffffffffffffffffffffffffffffffffffff1673ffffffffffffffffffffffffffffffffffffffff1673ffffffffffffffffffffffffffffffffffffffff1681526020016001820180546103cd90610c86565b80601f01602080910402602001604051908101604052809291908181526020018280546103f990610c86565b80156104445780601f1061041b57610100808354040283529160200191610444565b820191905f5260205f20905b81548152906001019060200180831161042757829003601f168201915b505050505081525050815260200160028201805461046190610c86565b80601f016020809104026020016040519081016040528092919081815260200182805461048d90610c86565b80156104d85780601f106104af576101008083540402835291602001916104d8565b820191905f5260205f20905b8154815290600101906020018083116104bb57829003601f168201915b50505050508152602001600382015481525050925081806104f890610d10565b9250505b808061050790610d10565b9150506102ac565b508192505050919050565b60015f9054906101000a900473ffffffffffffffffffffffffffffffffffffffff1673ffffffffffffffffffffffffffffffffffffffff163373ffffffffffffffffffffffffffffffffffffffff16146105a9576040517f08c379a00000000000000000000000000000000000000000000000000000000081526004016105a090610db1565b60405180910390fd5b5f604051806060016040528085815260200184815260200183815250908060018154018082558091505060019003905f5260205f2090600402015f909190919091505f820151815f015f820151815f015f6101000a81548173ffffffffffffffffffffffffffffffffffffffff021916908373ffffffffffffffffffffffffffffffffffffffff160217905550602082015181600101908161064b9190610f6c565b50505060208201518160020190816106639190610f6c565b50604082015181600301555050505050565b604051806060016040528061068861069b565b8152602001606081526020015f81525090565b60405180604001604052805f73ffffffffffffffffffffffffffffffffffffffff168152602001606081525090565b5f81519050919050565b5f82825260208201905092915050565b5f819050602082019050919050565b5f73ffffffffffffffffffffffffffffffffffffffff82169050919050565b5f61071c826106f3565b9050919050565b61072c81610712565b82525050565b5f81519050919050565b5f82825260208201905092915050565b5f5b8381101561076957808201518184015260208101905061074e565b5f8484015250505050565b5f601f19601f8301169050919050565b5f61078e82610732565b610798818561073c565b93506107a881856020860161074c565b6107b181610774565b840191505092915050565b5f604083015f8301516107d15f860182610723565b50602083015184820360208601526107e98282610784565b9150508091505092915050565b5f819050919050565b610808816107f6565b82525050565b5f606083015f8301518482035f86015261082882826107bc565b915050602083015184820360208601526108428282610784565b915050604083015161085760408601826107ff565b508091505092915050565b5f61086d838361080e565b905092915050565b5f602082019050919050565b5f61088b826106ca565b61089581856106d4565b9350836020820285016108a7856106e4565b805f5b858110156108e257848403895281516108c38582610862565b94506108ce83610875565b925060208a019950506001810190506108aa565b50829750879550505050505092915050565b5f6020820190508181035f83015261090c8184610881565b905092915050565b5f604051905090565b5f80fd5b5f80fd5b5f80fd5b7f4e487b71000000000000000000000000000000000000000000000000000000005f52604160045260245ffd5b61095f82610774565b810181811067ffffffffffffffff8211171561097e5761097d610929565b5b80604052505050565b5f610990610914565b905061099c8282610956565b919050565b5f80fd5b6109ae81610712565b81146109b8575f80fd5b50565b5f813590506109c9816109a5565b92915050565b5f80fd5b5f80fd5b5f67ffffffffffffffff8211156109f1576109f0610929565b5b6109fa82610774565b9050602081019050919050565b828183375f83830152505050565b5f610a27610a22846109d7565b610987565b905082815260208101848484011115610a4357610a426109d3565b5b610a4e848285610a07565b509392505050565b5f82601f830112610a6a57610a696109cf565b5b8135610a7a848260208601610a15565b91505092915050565b5f60408284031215610a9857610a97610925565b5b610aa26040610987565b90505f610ab1848285016109bb565b5f83015250602082013567ffffffffffffffff811115610ad457610ad36109a1565b5b610ae084828501610a56565b60208301525092915050565b5f60208284031215610b0157610b0061091d565b5b5f82013567ffffffffffffffff811115610b1e57610b1d610921565b5b610b2a84828501610a83565b91505092915050565b5f606083015f8301518482035f860152610b4d82826107bc565b91505060208301518482036020860152610b678282610784565b9150506040830151610b7c60408601826107ff565b508091505092915050565b5f6020820190508181035f830152610b9f8184610b33565b905092915050565b610bb0816107f6565b8114610bba575f80fd5b50565b5f81359050610bcb81610ba7565b92915050565b5f805f60608486031215610be857610be761091d565b5b5f84013567ffffffffffffffff811115610c0557610c04610921565b5b610c1186828701610a83565b935050602084013567ffffffffffffffff811115610c3257610c31610921565b5b610c3e86828701610a56565b9250506040610c4f86828701610bbd565b9150509250925092565b7f4e487b71000000000000000000000000000000000000000000000000000000005f52602260045260245ffd5b5f6002820490506001821680610c9d57607f821691505b602082108103610cb057610caf610c59565b5b50919050565b7f4e487b71000000000000000000000000000000000000000000000000000000005f52603260045260245ffd5b7f4e487b71000000000000000000000000000000000000000000000000000000005f52601160045260245ffd5b5f610d1a826107f6565b91507fffffffffffffffffffffffffffffffffffffffffffffffffffffffffffffffff8203610d4c57610d4b610ce3565b5b600182019050919050565b5f82825260208201905092915050565b7f4f7065726174696f6e206f6e6c792076616c696420666f722061646d696e00005f82015250565b5f610d9b601e83610d57565b9150610da682610d67565b602082019050919050565b5f6020820190508181035f830152610dc881610d8f565b9050919050565b5f819050815f5260205f209050919050565b5f6020601f8301049050919050565b5f82821b905092915050565b5f60088302610e2b7fffffffffffffffffffffffffffffffffffffffffffffffffffffffffffffffff82610df0565b610e358683610df0565b95508019841693508086168417925050509392505050565b5f819050919050565b5f610e70610e6b610e66846107f6565b610e4d565b6107f6565b9050919050565b5f819050919050565b610e8983610e56565b610e9d610e9582610e77565b848454610dfc565b825550505050565b5f90565b610eb1610ea5565b610ebc818484610e80565b505050565b5b81811015610edf57610ed45f82610ea9565b600181019050610ec2565b5050565b601f821115610f2457610ef581610dcf565b610efe84610de1565b81016020851015610f0d578190505b610f21610f1985610de1565b830182610ec1565b50505b505050565b5f82821c905092915050565b5f610f445f1984600802610f29565b1980831691505092915050565b5f610f5c8383610f35565b9150826002028217905092915050565b610f7582610732565b67ffffffffffffffff811115610f8e57610f8d610929565b5b610f988254610c86565b610fa3828285610ee3565b5f60209050601f831160018114610fd4575f8415610fc2578287015190505b610fcc8582610f51565b865550611033565b601f198416610fe286610dcf565b5f5b8281101561100957848901518255600182019150602085019450602081019050610fe4565b868310156110265784890151611022601f891682610f35565b8355505b6001600288020188555050505b50505050505056fea26469706673582212209fc96dfa0718d6bedc3421bb8483dadd77619a89e9b42af5cc6eef2cff2a4a4564736f6c63430008150033",
  "immutableReferences": {},
  "source": "// SPDX-License-Identifier: MIT\npragma solidity >=0.8.0;\n\n/**\n* @title Authenticator\n* @author Ismael Rabanal Martn, Eugenio Romero Ciudad\n* @notice Implementation of a RBAC contract. Updates from Solidity 0.6.0 to 0.8.0 by Eugenio Romero Ciudad\n*/\n\nimport \"./Structs.sol\";\n\n\ncontract Authenticator {\n    \n    struct ProofOfIdentity {\n        sharedStructs.User user;\n        string token;\n        uint256 expireDate;\n    }\n\n    ProofOfIdentity[] private proofs;\n    address admin;\n\n    constructor() {\n        admin = msg.sender;\n    }\n\n    modifier isAdmin() {\n        require(msg.sender == admin, \"Operation only valid for admin\");\n        _;\n    }\n    \n    function addToken(sharedStructs.User memory user, string memory token, uint256 expireDate) isAdmin public{\n       proofs.push(ProofOfIdentity({user: user, token: token, expireDate: expireDate}));\n    }\n    \n    function getAllTokens() public view returns(ProofOfIdentity[] memory tokens){\n        return proofs;\n    }\n    \n    function getTokenByUser(sharedStructs.User memory user) public view returns(ProofOfIdentity memory){\n        ProofOfIdentity memory token;\n        uint256 counter = 0;\n        for (uint256 i = 0; i < proofs.length; i++){\n            if(proofs[i].user.id == user.id){\n                token = proofs[i];\n                counter++;\n            }\n        }\n        return token;\n    }\n}\n",
  "sourcePath": "/home/alarcos/Documentos/GitHub/ALBA-ethereum/Authenticator/contracts/Authenticator.sol",
  "compiler": {
    "name": "solc",
    "version": "0.8.21+commit.d9974bed.Emscripten.clang"
  },
  "schemaVersion": "3.4.16",
  "updatedAt": "2024-09-25T15:06:22.199Z",
  "networkType": "ethereum",
  "devdoc": {
    "kind": "dev",
    "methods": {},
    "version": 1
  },
  "userdoc": {
    "kind": "user",
    "methods": {},
    "version": 1
  }
}