{
  "contractName": "Logger",
  "abi": [
    {
      "inputs": [],
      "stateMutability": "nonpayable",
      "type": "constructor"
    },
    {
      "anonymous": false,
      "inputs": [
        {
          "indexed": false,
          "internalType": "string",
          "name": "tipo",
          "type": "string"
        },
        {
          "indexed": false,
          "internalType": "string",
          "name": "time",
          "type": "string"
        },
        {
          "indexed": false,
          "internalType": "string",
          "name": "action",
          "type": "string"
        }
      ],
      "name": "EntryCreated",
      "type": "event"
    },
    {
      "anonymous": false,
      "inputs": [
        {
          "indexed": false,
          "internalType": "string",
          "name": "tipo",
          "type": "string"
        }
      ],
      "name": "LogCreated",
      "type": "event"
    },
    {
      "inputs": [
        {
          "internalType": "uint256",
          "name": "",
          "type": "uint256"
        }
      ],
      "name": "logs",
      "outputs": [
        {
          "internalType": "uint256",
          "name": "entriesNumber",
          "type": "uint256"
        },
        {
          "internalType": "enum sharedStructs.permissionTypes",
          "name": "tipo",
          "type": "uint8"
        }
      ],
      "stateMutability": "view",
      "type": "function",
      "constant": true
    },
    {
      "inputs": [
        {
          "internalType": "enum sharedStructs.permissionTypes",
          "name": "tipo",
          "type": "uint8"
        }
      ],
      "name": "addLog",
      "outputs": [],
      "stateMutability": "nonpayable",
      "type": "function"
    },
    {
      "inputs": [
        {
          "internalType": "enum sharedStructs.permissionTypes",
          "name": "tipo",
          "type": "uint8"
        },
        {
          "internalType": "uint256",
          "name": "time",
          "type": "uint256"
        },
        {
          "components": [
            {
              "internalType": "address",
              "name": "id",
              "type": "address"
            },
            {
              "internalType": "string",
              "name": "name",
              "type": "string"
            }
          ],
          "internalType": "struct sharedStructs.User",
          "name": "user",
          "type": "tuple"
        }
      ],
      "name": "addEntryByType",
      "outputs": [],
      "stateMutability": "nonpayable",
      "type": "function"
    },
    {
      "inputs": [
        {
          "internalType": "enum sharedStructs.permissionTypes",
          "name": "tipo",
          "type": "uint8"
        }
      ],
      "name": "getEntriesByType",
      "outputs": [
        {
          "components": [
            {
              "internalType": "uint256",
              "name": "time",
              "type": "uint256"
            },
            {
              "components": [
                {
                  "internalType": "address",
                  "name": "id",
                  "type": "address"
                },
                {
                  "internalType": "string",
                  "name": "name",
                  "type": "string"
                }
              ],
              "internalType": "struct sharedStructs.User",
              "name": "user",
              "type": "tuple"
            }
          ],
          "internalType": "struct Logger.LogEntry[]",
          "name": "",
          "type": "tuple[]"
        }
      ],
      "stateMutability": "view",
      "type": "function",
      "constant": true
    }
  ],
  "bytecode": "0x608060405234801561000f575f80fd5b506111598061001d5f395ff3fe608060405234801561000f575f80fd5b506004361061004a575f3560e01c80635e0170161461004e578063b7de21bf1461006a578063e106c5291461009a578063e79899bd146100b6575b5f80fd5b6100686004803603810190610063919061071a565b6100e7565b005b610084600480360381019061007f919061071a565b61023d565b6040516100919190610955565b60405180910390f35b6100b460048036038101906100af9190610b66565b610468565b005b6100d060048036038101906100cb9190610bd2565b610588565b6040516100de929190610c7f565b60405180910390f35b805f805b5f8054905081101561016f5782600381111561010a57610109610c0c565b5b5f828154811061011d5761011c610ca6565b5b905f5260205f2090600302016002015f9054906101000a900460ff16600381111561014b5761014a610c0c565b5b0361015c57600191505f8054905090505b808061016790610d00565b9150506100eb565b505f1515811515146101b6576040517f08c379a00000000000000000000000000000000000000000000000000000000081526004016101ad90610da1565b60405180910390fd5b5f60018160018154018082558091505003905f5260205f209050505f8060015f805490506101e49190610dbf565b815481106101f5576101f4610ca6565b5b905f5260205f20906003020190505f816001018190555083816002015f6101000a81548160ff0219169083600381111561023257610231610c0c565b5b021790555050505050565b60605f610249836105c3565b90505f80828154811061025f5761025e610ca6565b5b905f5260205f2090600302016001015467ffffffffffffffff811115610288576102876109a3565b5b6040519080825280602002602001820160405280156102c157816020015b6102ae610698565b8152602001906001900390816102a65790505b5090505f5b5f83815481106102d9576102d8610ca6565b5b905f5260205f2090600302016001015481101561045d575f838154811061030357610302610ca6565b5b905f5260205f2090600302015f015f8281526020019081526020015f206040518060400160405290815f8201548152602001600182016040518060400160405290815f82015f9054906101000a900473ffffffffffffffffffffffffffffffffffffffff1673ffffffffffffffffffffffffffffffffffffffff1673ffffffffffffffffffffffffffffffffffffffff1681526020016001820180546103a890610e1f565b80601f01602080910402602001604051908101604052809291908181526020018280546103d490610e1f565b801561041f5780601f106103f65761010080835404028352916020019161041f565b820191905f5260205f20905b81548152906001019060200180831161040257829003601f168201915b5050505050815250508152505082828151811061043f5761043e610ca6565b5b6020026020010181905250808061045590610d00565b9150506102c6565b508092505050919050565b5f610472846105c3565b90506040518060400160405280848152602001838152505f828154811061049c5761049b610ca6565b5b905f5260205f2090600302015f015f8084815481106104be576104bd610ca6565b5b905f5260205f2090600302016001015481526020019081526020015f205f820151815f01556020820151816001015f820151815f015f6101000a81548173ffffffffffffffffffffffffffffffffffffffff021916908373ffffffffffffffffffffffffffffffffffffffff16021790555060208201518160010190816105459190610fec565b5050509050505f818154811061055e5761055d610ca6565b5b905f5260205f2090600302016001015f81548092919061057d90610d00565b919050555050505050565b5f8181548110610596575f80fd5b905f5260205f2090600302015f91509050806001015490806002015f9054906101000a900460ff16905082565b5f805f90505f5b5f80549050811015610651578360038111156105e9576105e8610c0c565b5b5f82815481106105fc576105fb610ca6565b5b905f5260205f2090600302016002015f9054906101000a900460ff16600381111561062a57610629610c0c565b5b0361063e578092505f805490509050600191505b808061064990610d00565b9150506105ca565b5080610692576040517f08c379a000000000000000000000000000000000000000000000000000000000815260040161068990611105565b60405180910390fd5b50919050565b60405180604001604052805f81526020016106b16106b7565b81525090565b60405180604001604052805f73ffffffffffffffffffffffffffffffffffffffff168152602001606081525090565b5f604051905090565b5f80fd5b5f80fd5b60048110610703575f80fd5b50565b5f81359050610714816106f7565b92915050565b5f6020828403121561072f5761072e6106ef565b5b5f61073c84828501610706565b91505092915050565b5f81519050919050565b5f82825260208201905092915050565b5f819050602082019050919050565b5f819050919050565b6107808161076e565b82525050565b5f73ffffffffffffffffffffffffffffffffffffffff82169050919050565b5f6107af82610786565b9050919050565b6107bf816107a5565b82525050565b5f81519050919050565b5f82825260208201905092915050565b5f5b838110156107fc5780820151818401526020810190506107e1565b5f8484015250505050565b5f601f19601f8301169050919050565b5f610821826107c5565b61082b81856107cf565b935061083b8185602086016107df565b61084481610807565b840191505092915050565b5f604083015f8301516108645f8601826107b6565b506020830151848203602086015261087c8282610817565b9150508091505092915050565b5f604083015f83015161089e5f860182610777565b50602083015184820360208601526108b6828261084f565b9150508091505092915050565b5f6108ce8383610889565b905092915050565b5f602082019050919050565b5f6108ec82610745565b6108f6818561074f565b9350836020820285016109088561075f565b805f5b85811015610943578484038952815161092485826108c3565b945061092f836108d6565b925060208a0199505060018101905061090b565b50829750879550505050505092915050565b5f6020820190508181035f83015261096d81846108e2565b905092915050565b61097e8161076e565b8114610988575f80fd5b50565b5f8135905061099981610975565b92915050565b5f80fd5b7f4e487b71000000000000000000000000000000000000000000000000000000005f52604160045260245ffd5b6109d982610807565b810181811067ffffffffffffffff821117156109f8576109f76109a3565b5b80604052505050565b5f610a0a6106e6565b9050610a1682826109d0565b919050565b5f80fd5b610a28816107a5565b8114610a32575f80fd5b50565b5f81359050610a4381610a1f565b92915050565b5f80fd5b5f80fd5b5f67ffffffffffffffff821115610a6b57610a6a6109a3565b5b610a7482610807565b9050602081019050919050565b828183375f83830152505050565b5f610aa1610a9c84610a51565b610a01565b905082815260208101848484011115610abd57610abc610a4d565b5b610ac8848285610a81565b509392505050565b5f82601f830112610ae457610ae3610a49565b5b8135610af4848260208601610a8f565b91505092915050565b5f60408284031215610b1257610b1161099f565b5b610b1c6040610a01565b90505f610b2b84828501610a35565b5f83015250602082013567ffffffffffffffff811115610b4e57610b4d610a1b565b5b610b5a84828501610ad0565b60208301525092915050565b5f805f60608486031215610b7d57610b7c6106ef565b5b5f610b8a86828701610706565b9350506020610b9b8682870161098b565b925050604084013567ffffffffffffffff811115610bbc57610bbb6106f3565b5b610bc886828701610afd565b9150509250925092565b5f60208284031215610be757610be66106ef565b5b5f610bf48482850161098b565b91505092915050565b610c068161076e565b82525050565b7f4e487b71000000000000000000000000000000000000000000000000000000005f52602160045260245ffd5b60048110610c4a57610c49610c0c565b5b50565b5f819050610c5a82610c39565b919050565b5f610c6982610c4d565b9050919050565b610c7981610c5f565b82525050565b5f604082019050610c925f830185610bfd565b610c9f6020830184610c70565b9392505050565b7f4e487b71000000000000000000000000000000000000000000000000000000005f52603260045260245ffd5b7f4e487b71000000000000000000000000000000000000000000000000000000005f52601160045260245ffd5b5f610d0a8261076e565b91507fffffffffffffffffffffffffffffffffffffffffffffffffffffffffffffffff8203610d3c57610d3b610cd3565b5b600182019050919050565b5f82825260208201905092915050565b7f54686174206c6f6720616c7265616479206578697374730000000000000000005f82015250565b5f610d8b601783610d47565b9150610d9682610d57565b602082019050919050565b5f6020820190508181035f830152610db881610d7f565b9050919050565b5f610dc98261076e565b9150610dd48361076e565b9250828203905081811115610dec57610deb610cd3565b5b92915050565b7f4e487b71000000000000000000000000000000000000000000000000000000005f52602260045260245ffd5b5f6002820490506001821680610e3657607f821691505b602082108103610e4957610e48610df2565b5b50919050565b5f819050815f5260205f209050919050565b5f6020601f8301049050919050565b5f82821b905092915050565b5f60088302610eab7fffffffffffffffffffffffffffffffffffffffffffffffffffffffffffffffff82610e70565b610eb58683610e70565b95508019841693508086168417925050509392505050565b5f819050919050565b5f610ef0610eeb610ee68461076e565b610ecd565b61076e565b9050919050565b5f819050919050565b610f0983610ed6565b610f1d610f1582610ef7565b848454610e7c565b825550505050565b5f90565b610f31610f25565b610f3c818484610f00565b505050565b5b81811015610f5f57610f545f82610f29565b600181019050610f42565b5050565b601f821115610fa457610f7581610e4f565b610f7e84610e61565b81016020851015610f8d578190505b610fa1610f9985610e61565b830182610f41565b50505b505050565b5f82821c905092915050565b5f610fc45f1984600802610fa9565b1980831691505092915050565b5f610fdc8383610fb5565b9150826002028217905092915050565b610ff5826107c5565b67ffffffffffffffff81111561100e5761100d6109a3565b5b6110188254610e1f565b611023828285610f63565b5f60209050601f831160018114611054575f8415611042578287015190505b61104c8582610fd1565b8655506110b3565b601f19841661106286610e4f565b5f5b8281101561108957848901518255600182019150602085019450602081019050611064565b868310156110a657848901516110a2601f891682610fb5565b8355505b6001600288020188555050505b505050505050565b7f4c6f67206e6f7420666f756e64000000000000000000000000000000000000005f82015250565b5f6110ef600d83610d47565b91506110fa826110bb565b602082019050919050565b5f6020820190508181035f83015261111c816110e3565b905091905056fea26469706673582212209e6f69d89e1fc44a9dafdcc4e2dae9ff8e63e49938a3017cedad318b2f88f93e64736f6c63430008150033",
  "immutableReferences": {},
  "source": "// SPDX-License-Identifier: MIT\npragma solidity >=0.8.0;\n\n/**\n* @title Logger\n* @author Ismael Rabanal Martn, Eugenio Romero Ciudad\n* @notice Implementation of a RBAC contract. Updates from Solidity 0.6.0 to 0.8.0 by Eugenio Romero Ciudad\n*/\n\nimport \"./Structs.sol\";\n\ncontract Logger {\n    \n    event LogCreated(string tipo);\n    event EntryCreated(string tipo, string time, string action);\n    \n    struct LogEntry{\n        uint256 time;\n        sharedStructs.User user;\n    }\n    \n    struct Log {\n        mapping (uint256 => LogEntry) entries;\n        uint256 entriesNumber;\n        sharedStructs.permissionTypes tipo;\n    }\n\n    Log[] public logs;\n    address admin;\n\n    constructor() {}\n    \n    modifier uniqueType(sharedStructs.permissionTypes tipo){\n        bool exists = false;\n        for (uint256 i = 0; i < logs.length; i++) {\n            if (logs[i].tipo == tipo) {\n                exists = true;\n                i = logs.length;\n            }\n        }\n        require(exists == false, \"That log already exists\");\n        _;\n    }\n    \n      \n    function addLog(sharedStructs.permissionTypes tipo) public uniqueType(tipo) {\n        // Aade un nuevo elemento al array de logs en el almacenamiento\n        logs.push();\n\n        // Obtn una referencia al nuevo log en el almacenamiento\n        Log storage newLog = logs[logs.length - 1];\n\n        // Asigna los valores a los campos de la estructura\n        newLog.entriesNumber = 0;\n        newLog.tipo = tipo;\n    }\n\n    \n    function addEntryByType(sharedStructs.permissionTypes tipo, uint256 time, sharedStructs.User memory user) public{\n       uint256 idLog = getIdLogByType(tipo);\n       logs[idLog].entries[logs[idLog].entriesNumber] = LogEntry({time: time, user: user});\n       logs[idLog].entriesNumber++;\n    }\n    \n    \n    function getIdLogByType(sharedStructs.permissionTypes tipo) private view returns (uint256 id){\n        bool found = false;\n        for (uint256 i = 0; i < logs.length; i++) {\n            if (logs[i].tipo == tipo) {\n                id = i;\n                i = logs.length;\n                found = true;\n            }\n        }\n        require(found, \"Log not found\");\n        return id;\n    }\n    \n    function getEntriesByType(sharedStructs.permissionTypes tipo)public view returns (LogEntry[] memory){\n        uint256 idLog = getIdLogByType(tipo);\n        LogEntry[] memory logEntries = new LogEntry[](logs[idLog].entriesNumber);\n        for (uint256 i = 0; i < logs[idLog].entriesNumber; i++){\n            logEntries[i] = logs[idLog].entries[i];\n        }\n        return logEntries;\n    }\n    \n}\n",
  "sourcePath": "/home/alarcos/Documentos/GitHub/ALBA-ethereum/Authenticator/contracts/Logger.sol",
  "compiler": {
    "name": "solc",
    "version": "0.8.21+commit.d9974bed.Emscripten.clang"
  },
  "schemaVersion": "3.4.16",
  "updatedAt": "2024-09-25T15:06:22.177Z",
  "networkType": "ethereum",
  "devdoc": {
    "kind": "dev",
    "methods": {},
    "version": 1
  },
  "userdoc": {
    "kind": "user",
    "methods": {},
    "version": 1
  }
}