{
  "contractName": "RBAC",
  "abi": [
    {
      "inputs": [],
      "stateMutability": "nonpayable",
      "type": "constructor"
    },
    {
      "anonymous": false,
      "inputs": [
        {
          "indexed": false,
          "internalType": "string",
          "name": "objectName",
          "type": "string"
        },
        {
          "indexed": false,
          "internalType": "string",
          "name": "roleName",
          "type": "string"
        },
        {
          "indexed": false,
          "internalType": "enum sharedStructs.permissionTypes",
          "name": "permissionName",
          "type": "uint8"
        },
        {
          "indexed": false,
          "internalType": "uint256",
          "name": "expireDate",
          "type": "uint256"
        }
      ],
      "name": "PermissionCreated",
      "type": "event"
    },
    {
      "anonymous": false,
      "inputs": [
        {
          "indexed": false,
          "internalType": "string",
          "name": "objectName",
          "type": "string"
        },
        {
          "indexed": false,
          "internalType": "string",
          "name": "roleName",
          "type": "string"
        },
        {
          "indexed": false,
          "internalType": "uint256",
          "name": "expireDate",
          "type": "uint256"
        }
      ],
      "name": "PermissionDeleted",
      "type": "event"
    },
    {
      "anonymous": false,
      "inputs": [
        {
          "indexed": false,
          "internalType": "string",
          "name": "name",
          "type": "string"
        }
      ],
      "name": "ProtectedObjectCreated",
      "type": "event"
    },
    {
      "anonymous": false,
      "inputs": [
        {
          "indexed": false,
          "internalType": "string",
          "name": "name",
          "type": "string"
        }
      ],
      "name": "ProtectedObjectDeleted",
      "type": "event"
    },
    {
      "anonymous": false,
      "inputs": [
        {
          "indexed": false,
          "internalType": "string",
          "name": "name",
          "type": "string"
        }
      ],
      "name": "RoleCreated",
      "type": "event"
    },
    {
      "anonymous": false,
      "inputs": [
        {
          "indexed": false,
          "internalType": "string",
          "name": "name",
          "type": "string"
        }
      ],
      "name": "RoleDeleted",
      "type": "event"
    },
    {
      "anonymous": false,
      "inputs": [
        {
          "indexed": false,
          "internalType": "address",
          "name": "id",
          "type": "address"
        },
        {
          "indexed": false,
          "internalType": "string",
          "name": "userName",
          "type": "string"
        },
        {
          "indexed": false,
          "internalType": "string",
          "name": "roleName",
          "type": "string"
        }
      ],
      "name": "UserCreated",
      "type": "event"
    },
    {
      "anonymous": false,
      "inputs": [
        {
          "indexed": false,
          "internalType": "address",
          "name": "id",
          "type": "address"
        }
      ],
      "name": "UserDeleted",
      "type": "event"
    },
    {
      "inputs": [],
      "name": "getAllUsers",
      "outputs": [
        {
          "components": [
            {
              "internalType": "address",
              "name": "id",
              "type": "address"
            },
            {
              "internalType": "string",
              "name": "name",
              "type": "string"
            }
          ],
          "internalType": "struct sharedStructs.User[]",
          "name": "",
          "type": "tuple[]"
        }
      ],
      "stateMutability": "view",
      "type": "function",
      "constant": true
    },
    {
      "inputs": [],
      "name": "getAllRolesDescriptions",
      "outputs": [
        {
          "internalType": "string[]",
          "name": "",
          "type": "string[]"
        }
      ],
      "stateMutability": "view",
      "type": "function",
      "constant": true
    },
    {
      "inputs": [
        {
          "internalType": "string",
          "name": "roleName",
          "type": "string"
        }
      ],
      "name": "getAllUsersFromRole",
      "outputs": [
        {
          "components": [
            {
              "internalType": "address",
              "name": "id",
              "type": "address"
            },
            {
              "internalType": "string",
              "name": "name",
              "type": "string"
            }
          ],
          "internalType": "struct sharedStructs.User[]",
          "name": "",
          "type": "tuple[]"
        }
      ],
      "stateMutability": "view",
      "type": "function",
      "constant": true
    },
    {
      "inputs": [],
      "name": "getAllPermissions",
      "outputs": [
        {
          "internalType": "string[]",
          "name": "",
          "type": "string[]"
        },
        {
          "internalType": "string[]",
          "name": "",
          "type": "string[]"
        },
        {
          "internalType": "enum sharedStructs.permissionTypes[]",
          "name": "",
          "type": "uint8[]"
        },
        {
          "internalType": "uint256[]",
          "name": "",
          "type": "uint256[]"
        }
      ],
      "stateMutability": "view",
      "type": "function",
      "constant": true
    },
    {
      "inputs": [],
      "name": "getAllProtectedObjects",
      "outputs": [
        {
          "components": [
            {
              "internalType": "string",
              "name": "name",
              "type": "string"
            }
          ],
          "internalType": "struct RBAC.ProtectedObject[]",
          "name": "",
          "type": "tuple[]"
        }
      ],
      "stateMutability": "view",
      "type": "function",
      "constant": true
    },
    {
      "inputs": [
        {
          "internalType": "string",
          "name": "userName",
          "type": "string"
        },
        {
          "internalType": "address",
          "name": "id",
          "type": "address"
        }
      ],
      "name": "addUser",
      "outputs": [],
      "stateMutability": "nonpayable",
      "type": "function"
    },
    {
      "inputs": [
        {
          "internalType": "string",
          "name": "userName",
          "type": "string"
        },
        {
          "internalType": "address",
          "name": "id",
          "type": "address"
        },
        {
          "internalType": "string",
          "name": "roleName",
          "type": "string"
        }
      ],
      "name": "addUser",
      "outputs": [],
      "stateMutability": "nonpayable",
      "type": "function"
    },
    {
      "inputs": [
        {
          "internalType": "string",
          "name": "roleName",
          "type": "string"
        }
      ],
      "name": "addRole",
      "outputs": [],
      "stateMutability": "nonpayable",
      "type": "function"
    },
    {
      "inputs": [
        {
          "internalType": "address",
          "name": "userAddress",
          "type": "address"
        },
        {
          "internalType": "string",
          "name": "roleName",
          "type": "string"
        }
      ],
      "name": "changeUserRole",
      "outputs": [],
      "stateMutability": "nonpayable",
      "type": "function"
    },
    {
      "inputs": [
        {
          "internalType": "string",
          "name": "objectName",
          "type": "string"
        }
      ],
      "name": "addProtectedObject",
      "outputs": [],
      "stateMutability": "nonpayable",
      "type": "function"
    },
    {
      "inputs": [
        {
          "internalType": "string",
          "name": "objectName",
          "type": "string"
        },
        {
          "internalType": "string",
          "name": "roleName",
          "type": "string"
        },
        {
          "internalType": "uint8",
          "name": "tipo",
          "type": "uint8"
        },
        {
          "internalType": "uint256",
          "name": "expireDate",
          "type": "uint256"
        }
      ],
      "name": "addPermission",
      "outputs": [],
      "stateMutability": "nonpayable",
      "type": "function"
    },
    {
      "inputs": [
        {
          "internalType": "address",
          "name": "userAddress",
          "type": "address"
        }
      ],
      "name": "deleteUser",
      "outputs": [],
      "stateMutability": "nonpayable",
      "type": "function"
    },
    {
      "inputs": [
        {
          "internalType": "string",
          "name": "roleName",
          "type": "string"
        }
      ],
      "name": "deleteRole",
      "outputs": [],
      "stateMutability": "nonpayable",
      "type": "function"
    },
    {
      "inputs": [
        {
          "internalType": "string",
          "name": "objectName",
          "type": "string"
        },
        {
          "internalType": "string",
          "name": "roleName",
          "type": "string"
        },
        {
          "internalType": "uint256",
          "name": "expireDate",
          "type": "uint256"
        }
      ],
      "name": "deletePermission",
      "outputs": [],
      "stateMutability": "nonpayable",
      "type": "function"
    },
    {
      "inputs": [
        {
          "internalType": "string",
          "name": "objectName",
          "type": "string"
        }
      ],
      "name": "deleteProtectedObject",
      "outputs": [],
      "stateMutability": "nonpayable",
      "type": "function"
    },
    {
      "inputs": [
        {
          "internalType": "string",
          "name": "objectName",
          "type": "string"
        },
        {
          "internalType": "string",
          "name": "roleName",
          "type": "string"
        },
        {
          "internalType": "uint256",
          "name": "expireDate",
          "type": "uint256"
        }
      ],
      "name": "askForPermission",
      "outputs": [
        {
          "internalType": "enum sharedStructs.permissionTypes",
          "name": "",
          "type": "uint8"
        }
      ],
      "stateMutability": "view",
      "type": "function",
      "constant": true
    }
  ],
  "bytecode": "0x608060405234801561000f575f80fd5b503360045f6101000a81548173ffffffffffffffffffffffffffffffffffffffff021916908373ffffffffffffffffffffffffffffffffffffffff160217905550614b258061005d5f395ff3fe608060405234801561000f575f80fd5b50600436106100fd575f3560e01c80636d41a7b711610095578063d4b3173111610064578063d4b3173114610282578063e2842d791461029e578063f29f968d146102bc578063f79dbf8c146102d8576100fd565b80636d41a7b71461020d5780637bec331114610229578063864a0d0a14610245578063b989e2c514610261576100fd565b8063532b34e7116100d1578063532b34e71461018957806359db9067146101a55780635c60f226146101c15780636323cd41146101dd576100fd565b8062735953146101015780633d87b9e01461011f5780633e96e8681461014f5780634726baa91461016b575b5f80fd5b6101096102f4565b604051610116919061335c565b60405180910390f35b610139600480360381019061013491906134b9565b6103db565b6040516101469190613634565b60405180910390f35b610169600480360381019061016491906134b9565b610713565b005b61017361088d565b604051610180919061370f565b60405180910390f35b6101a3600480360381019061019e91906134b9565b6109d6565b005b6101bf60048036038101906101ba9190613798565b610b31565b005b6101db60048036038101906101d6919061385e565b610e11565b005b6101f760048036038101906101f29190613889565b610fde565b6040516102049190613984565b60405180910390f35b61022760048036038101906102229190613889565b6111f6565b005b610243600480360381019061023e91906134b9565b6114d2565b005b61025f600480360381019061025a919061399d565b6116ef565b005b6102696119b7565b6040516102799493929190613b65565b60405180910390f35b61029c60048036038101906102979190613bc4565b611dcb565b005b6102a6611fc2565b6040516102b39190613634565b60405180910390f35b6102d660048036038101906102d191906134b9565b612101565b005b6102f260048036038101906102ed9190613c4c565b61232d565b005b60606003805480602002602001604051908101604052809291908181526020015f905b828210156103d2578382905f5260205f20016040518060200160405290815f8201805461034390613cd3565b80601f016020809104026020016040519081016040528092919081815260200182805461036f90613cd3565b80156103ba5780601f10610391576101008083540402835291602001916103ba565b820191905f5260205f20905b81548152906001019060200180831161039d57829003601f168201915b50505050508152505081526020019060010190610317565b50505050905090565b60606103e68261259a565b610425576040517f08c379a000000000000000000000000000000000000000000000000000000000815260040161041c90613d5d565b60405180910390fd5b5f805f90505b60018054905081101561050e576104ea6001828154811061044f5761044e613d7b565b5b905f5260205f2090600302015f01805461046890613cd3565b80601f016020809104026020016040519081016040528092919081815260200182805461049490613cd3565b80156104df5780601f106104b6576101008083540402835291602001916104df565b820191905f5260205f20905b8154815290600101906020018083116104c257829003601f168201915b505050505085612687565b156104fb5780915060018054905090505b808061050690613dd5565b91505061042b565b505f6001828154811061052457610523613d7b565b5b905f5260205f2090600302016001015467ffffffffffffffff81111561054d5761054c613395565b5b60405190808252806020026020018201604052801561058657816020015b610573613169565b81526020019060019003908161056b5790505b5090505f5b6001838154811061059f5761059e613d7b565b5b905f5260205f2090600302016001015481101561070857600183815481106105ca576105c9613d7b565b5b905f5260205f2090600302016002015f8281526020019081526020015f206040518060400160405290815f82015f9054906101000a900473ffffffffffffffffffffffffffffffffffffffff1673ffffffffffffffffffffffffffffffffffffffff1673ffffffffffffffffffffffffffffffffffffffff16815260200160018201805461065790613cd3565b80601f016020809104026020016040519081016040528092919081815260200182805461068390613cd3565b80156106ce5780601f106106a5576101008083540402835291602001916106ce565b820191905f5260205f20905b8154815290600101906020018083116106b157829003601f168201915b5050505050815250508282815181106106ea576106e9613d7b565b5b6020026020010181905250808061070090613dd5565b91505061058b565b508092505050919050565b60045f9054906101000a900473ffffffffffffffffffffffffffffffffffffffff1673ffffffffffffffffffffffffffffffffffffffff163373ffffffffffffffffffffffffffffffffffffffff16146107a2576040517f08c379a000000000000000000000000000000000000000000000000000000000815260040161079990613e66565b60405180910390fd5b6107ab8161259a565b156107eb576040517f08c379a00000000000000000000000000000000000000000000000000000000081526004016107e290613ece565b60405180910390fd5b6001808160018154018082558091505003905f5260205f209050505f60018080805490506108199190613eec565b8154811061082a57610829613d7b565b5b905f5260205f209060030201905081815f01908161084891906140bc565b505f81600101819055507fb166be894521206d0ac51e4d2cee3a7fe26260bbef03f04377cfc34ed93d04a68260405161088191906141c3565b60405180910390a15050565b60605f60018054905067ffffffffffffffff8111156108af576108ae613395565b5b6040519080825280602002602001820160405280156108e257816020015b60608152602001906001900390816108cd5790505b5090505f5b6001805490508110156109ce576001818154811061090857610907613d7b565b5b905f5260205f2090600302015f01805461092190613cd3565b80601f016020809104026020016040519081016040528092919081815260200182805461094d90613cd3565b80156109985780601f1061096f57610100808354040283529160200191610998565b820191905f5260205f20905b81548152906001019060200180831161097b57829003601f168201915b50505050508282815181106109b0576109af613d7b565b5b602002602001018190525080806109c690613dd5565b9150506108e7565b508091505090565b60045f9054906101000a900473ffffffffffffffffffffffffffffffffffffffff1673ffffffffffffffffffffffffffffffffffffffff163373ffffffffffffffffffffffffffffffffffffffff1614610a65576040517f08c379a0000000000000000000000000000000000000000000000000000000008152600401610a5c90613e66565b60405180910390fd5b610a6e816126df565b15610aae576040517f08c379a0000000000000000000000000000000000000000000000000000000008152600401610aa59061422d565b60405180910390fd5b6003604051806020016040528083815250908060018154018082558091505060019003905f5260205f20015f909190919091505f820151815f019081610af491906140bc565b5050507ff02391413ebf8342cbc9342dc3f3f6f57d2b16a651b118d8b1d031a80efa290f81604051610b2691906141c3565b60405180910390a150565b60045f9054906101000a900473ffffffffffffffffffffffffffffffffffffffff1673ffffffffffffffffffffffffffffffffffffffff163373ffffffffffffffffffffffffffffffffffffffff1614610bc0576040517f08c379a0000000000000000000000000000000000000000000000000000000008152600401610bb790613e66565b60405180910390fd5b610bcb8484836127c8565b15610c0b576040517f08c379a0000000000000000000000000000000000000000000000000000000008152600401610c0290614295565b60405180910390fd5b610c14846126df565b610c53576040517f08c379a0000000000000000000000000000000000000000000000000000000008152600401610c4a906142fd565b60405180910390fd5b610c5c8361259a565b610c9b576040517f08c379a0000000000000000000000000000000000000000000000000000000008152600401610c9290614365565b60405180910390fd5b60048260ff161115610ce2576040517f08c379a0000000000000000000000000000000000000000000000000000000008152600401610cd9906143f3565b60405180910390fd5b5f610cec8561289c565b90505f610cf885612987565b9050600260405180608001604052808481526020018381526020018660ff166003811115610d2957610d28613911565b5b6003811115610d3b57610d3a613911565b5b815260200185815250908060018154018082558091505060019003905f5260205f2090600402015f909190919091505f820151815f0155602082015181600101556040820151816002015f6101000a81548160ff02191690836003811115610da657610da5613911565b5b02179055506060820151816003015550507f533646ff49a628330edd5a65616d9eecb360c2cdf36b2a6c40dae1e2e1932b0186868660ff166003811115610df057610def613911565b5b86604051610e019493929190614420565b60405180910390a1505050505050565b60045f9054906101000a900473ffffffffffffffffffffffffffffffffffffffff1673ffffffffffffffffffffffffffffffffffffffff163373ffffffffffffffffffffffffffffffffffffffff1614610ea0576040517f08c379a0000000000000000000000000000000000000000000000000000000008152600401610e9790613e66565b60405180910390fd5b610ea981612a76565b610eb1575f80fd5b5f5b5f80549050811015610fa3578173ffffffffffffffffffffffffffffffffffffffff165f8281548110610ee957610ee8613d7b565b5b905f5260205f2090600202015f015f9054906101000a900473ffffffffffffffffffffffffffffffffffffffff1673ffffffffffffffffffffffffffffffffffffffff1603610f90575f8181548110610f4557610f44613d7b565b5b905f5260205f2090600202015f8082015f6101000a81549073ffffffffffffffffffffffffffffffffffffffff0219169055600182015f610f869190613198565b50505f8054905090505b8080610f9b90613dd5565b915050610eb3565b507f4bc56f1321288dfb5b416cb3a7fd188723979f9e866c91d88eccf7fca039d03981604051610fd39190614480565b60405180910390a150565b5f610fe8846126df565b611027576040517f08c379a000000000000000000000000000000000000000000000000000000000815260040161101e906144e3565b60405180910390fd5b6110308361259a565b61106f576040517f08c379a00000000000000000000000000000000000000000000000000000000081526004016110669061454b565b60405180910390fd5b61107a8484846127c8565b6110b9576040517f08c379a00000000000000000000000000000000000000000000000000000000081526004016110b0906145b3565b60405180910390fd5b5f6110c38561289c565b90505f6110cf85612987565b90505f5b6002805490508110156111b35782600282815481106110f5576110f4613d7b565b5b905f5260205f2090600402015f01541480156111335750816002828154811061112157611120613d7b565b5b905f5260205f20906004020160010154145b80156111615750846002828154811061114f5761114e613d7b565b5b905f5260205f20906004020160030154145b156111a0576002818154811061117a57611179613d7b565b5b905f5260205f2090600402016002015f9054906101000a900460ff1693505050506111ef565b80806111ab90613dd5565b9150506110d3565b506040517f08c379a00000000000000000000000000000000000000000000000000000000081526004016111e69061461b565b60405180910390fd5b9392505050565b60045f9054906101000a900473ffffffffffffffffffffffffffffffffffffffff1673ffffffffffffffffffffffffffffffffffffffff163373ffffffffffffffffffffffffffffffffffffffff1614611285576040517f08c379a000000000000000000000000000000000000000000000000000000000815260040161127c90613e66565b60405180910390fd5b6112908383836127c8565b6112cf576040517f08c379a00000000000000000000000000000000000000000000000000000000081526004016112c690614683565b60405180910390fd5b5f6112d98461289c565b90505f6112e584612987565b90505f5b6002805490508110156114ca57826002828154811061130b5761130a613d7b565b5b905f5260205f2090600402015f01541480156113495750816002828154811061133757611336613d7b565b5b905f5260205f20906004020160010154145b80156113775750836002828154811061136557611364613d7b565b5b905f5260205f20906004020160030154145b156114b757600260016002805490506113909190613eec565b815481106113a1576113a0613d7b565b5b905f5260205f209060040201600282815481106113c1576113c0613d7b565b5b905f5260205f2090600402015f820154815f015560018201548160010155600282015f9054906101000a900460ff16816002015f6101000a81548160ff0219169083600381111561141557611414613911565b5b0217905550600382015481600301559050506002805480611439576114386146a1565b5b600190038181905f5260205f2090600402015f8082015f9055600182015f9055600282015f6101000a81549060ff0219169055600382015f9055505090557f36dfd55631f907614c792dd1cd3b73b7fdee2ab379690af07b0defbea73a4f478686866040516114aa939291906146ce565b60405180910390a16114ca565b80806114c290613dd5565b9150506112e9565b505050505050565b60045f9054906101000a900473ffffffffffffffffffffffffffffffffffffffff1673ffffffffffffffffffffffffffffffffffffffff163373ffffffffffffffffffffffffffffffffffffffff1614611561576040517f08c379a000000000000000000000000000000000000000000000000000000000815260040161155890613e66565b60405180910390fd5b61156a816126df565b6115a9576040517f08c379a00000000000000000000000000000000000000000000000000000000081526004016115a0906144e3565b60405180910390fd5b5f5b6003805490508110156116b457611666600382815481106115cf576115ce613d7b565b5b905f5260205f20015f0180546115e490613cd3565b80601f016020809104026020016040519081016040528092919081815260200182805461161090613cd3565b801561165b5780601f106116325761010080835404028352916020019161165b565b820191905f5260205f20905b81548152906001019060200180831161163e57829003601f168201915b505050505083612687565b156116a1576003818154811061167f5761167e613d7b565b5b905f5260205f20015f8082015f6116969190613198565b505060038054905090505b80806116ac90613dd5565b9150506115ab565b507f1a0c2d55fec849f1be2d4a2f2b5e2517c6ea263c5625720d1ea135f3b2921c5a816040516116e491906141c3565b60405180910390a150565b60045f9054906101000a900473ffffffffffffffffffffffffffffffffffffffff1673ffffffffffffffffffffffffffffffffffffffff163373ffffffffffffffffffffffffffffffffffffffff161461177e576040517f08c379a000000000000000000000000000000000000000000000000000000000815260040161177590613e66565b60405180910390fd5b61178781612a76565b156117c7576040517f08c379a00000000000000000000000000000000000000000000000000000000081526004016117be90614781565b60405180910390fd5b5f60405180604001604052808373ffffffffffffffffffffffffffffffffffffffff16815260200184815250908060018154018082558091505060019003905f5260205f2090600202015f909190919091505f820151815f015f6101000a81548173ffffffffffffffffffffffffffffffffffffffff021916908373ffffffffffffffffffffffffffffffffffffffff160217905550602082015181600101908161187291906140bc565b5050506118b36040518060400160405280600b81526020017f64656661756c745573657200000000000000000000000000000000000000000081525061259a565b156118fc576118f7816040518060400160405280600b81526020017f64656661756c7455736572000000000000000000000000000000000000000000815250612b1d565b61197a565b61193a6040518060400160405280600b81526020017f64656661756c7455736572000000000000000000000000000000000000000000815250610713565b611979816040518060400160405280600b81526020017f64656661756c7455736572000000000000000000000000000000000000000000815250612b1d565b5b7fa2e1d286e25c6fce64acccdfd7a54d53cce2f617ddff648ab1dbb3458ccdd95b81836040516119ab9291906147e9565b60405180910390a15050565b6060806060805f60028054905067ffffffffffffffff8111156119dd576119dc613395565b5b604051908082528060200260200182016040528015611a1057816020015b60608152602001906001900390816119fb5790505b5090505f60028054905067ffffffffffffffff811115611a3357611a32613395565b5b604051908082528060200260200182016040528015611a6657816020015b6060815260200190600190039081611a515790505b5090505f60028054905067ffffffffffffffff811115611a8957611a88613395565b5b604051908082528060200260200182016040528015611ab75781602001602082028036833780820191505090505b5090505f60028054905067ffffffffffffffff811115611ada57611ad9613395565b5b604051908082528060200260200182016040528015611b085781602001602082028036833780820191505090505b5090505f5b600280549050811015611db457600360028281548110611b3057611b2f613d7b565b5b905f5260205f2090600402015f015481548110611b5057611b4f613d7b565b5b905f5260205f20015f018054611b6590613cd3565b80601f0160208091040260200160405190810160405280929190818152602001828054611b9190613cd3565b8015611bdc5780601f10611bb357610100808354040283529160200191611bdc565b820191905f5260205f20905b815481529060010190602001808311611bbf57829003601f168201915b5050505050858281518110611bf457611bf3613d7b565b5b6020026020010181905250600160028281548110611c1557611c14613d7b565b5b905f5260205f2090600402016001015481548110611c3657611c35613d7b565b5b905f5260205f2090600302015f018054611c4f90613cd3565b80601f0160208091040260200160405190810160405280929190818152602001828054611c7b90613cd3565b8015611cc65780601f10611c9d57610100808354040283529160200191611cc6565b820191905f5260205f20905b815481529060010190602001808311611ca957829003601f168201915b5050505050848281518110611cde57611cdd613d7b565b5b602002602001018190525060028181548110611cfd57611cfc613d7b565b5b905f5260205f2090600402016002015f9054906101000a900460ff16838281518110611d2c57611d2b613d7b565b5b60200260200101906003811115611d4657611d45613911565b5b90816003811115611d5a57611d59613911565b5b8152505060028181548110611d7257611d71613d7b565b5b905f5260205f20906004020160030154828281518110611d9557611d94613d7b565b5b6020026020010181815250508080611dac90613dd5565b915050611b0d565b508383838397509750975097505050505090919293565b60045f9054906101000a900473ffffffffffffffffffffffffffffffffffffffff1673ffffffffffffffffffffffffffffffffffffffff163373ffffffffffffffffffffffffffffffffffffffff1614611e5a576040517f08c379a0000000000000000000000000000000000000000000000000000000008152600401611e5190613e66565b60405180910390fd5b611e6382612a76565b15611ea3576040517f08c379a0000000000000000000000000000000000000000000000000000000008152600401611e9a90614781565b60405180910390fd5b5f60405180604001604052808473ffffffffffffffffffffffffffffffffffffffff16815260200185815250908060018154018082558091505060019003905f5260205f2090600202015f909190919091505f820151815f015f6101000a81548173ffffffffffffffffffffffffffffffffffffffff021916908373ffffffffffffffffffffffffffffffffffffffff1602179055506020820151816001019081611f4e91906140bc565b505050611f5a8161259a565b15611f6e57611f698282612b1d565b611f82565b611f7781610713565b611f818282612b1d565b5b7fa2e1d286e25c6fce64acccdfd7a54d53cce2f617ddff648ab1dbb3458ccdd95b828483604051611fb59392919061482a565b60405180910390a1505050565b60605f805480602002602001604051908101604052809291908181526020015f905b828210156120f8578382905f5260205f2090600202016040518060400160405290815f82015f9054906101000a900473ffffffffffffffffffffffffffffffffffffffff1673ffffffffffffffffffffffffffffffffffffffff1673ffffffffffffffffffffffffffffffffffffffff16815260200160018201805461206990613cd3565b80601f016020809104026020016040519081016040528092919081815260200182805461209590613cd3565b80156120e05780601f106120b7576101008083540402835291602001916120e0565b820191905f5260205f20905b8154815290600101906020018083116120c357829003601f168201915b50505050508152505081526020019060010190611fe4565b50505050905090565b60045f9054906101000a900473ffffffffffffffffffffffffffffffffffffffff1673ffffffffffffffffffffffffffffffffffffffff163373ffffffffffffffffffffffffffffffffffffffff1614612190576040517f08c379a000000000000000000000000000000000000000000000000000000000815260040161218790613e66565b60405180910390fd5b6121998161259a565b6121d8576040517f08c379a00000000000000000000000000000000000000000000000000000000081526004016121cf90613d5d565b60405180910390fd5b5f5b6001805490508110156122f257612299600182815481106121fe576121fd613d7b565b5b905f5260205f2090600302015f01805461221790613cd3565b80601f016020809104026020016040519081016040528092919081815260200182805461224390613cd3565b801561228e5780601f106122655761010080835404028352916020019161228e565b820191905f5260205f20905b81548152906001019060200180831161227157829003601f168201915b505050505083612687565b156122df57600181815481106122b2576122b1613d7b565b5b905f5260205f2090600302015f8082015f6122cd9190613198565b600182015f9055505060018054905090505b80806122ea90613dd5565b9150506121da565b507f9e01a6554e3918b0cb2c072cba2a3ba198842a134a67aa85de77576d2174578d8160405161232291906141c3565b60405180910390a150565b60045f9054906101000a900473ffffffffffffffffffffffffffffffffffffffff1673ffffffffffffffffffffffffffffffffffffffff163373ffffffffffffffffffffffffffffffffffffffff16146123bc576040517f08c379a00000000000000000000000000000000000000000000000000000000081526004016123b390613e66565b60405180910390fd5b6123c582612a76565b612404576040517f08c379a00000000000000000000000000000000000000000000000000000000081526004016123fb906148b7565b60405180910390fd5b61240d8161259a565b61244c576040517f08c379a000000000000000000000000000000000000000000000000000000000815260040161244390614365565b60405180910390fd5b5f61245682612987565b90505f61246284612dca565b905061246d84612e73565b5f81815481106124805761247f613d7b565b5b905f5260205f209060020201600183815481106124a05761249f613d7b565b5b905f5260205f2090600302016002015f600185815481106124c4576124c3613d7b565b5b905f5260205f2090600302016001015481526020019081526020015f205f82015f9054906101000a900473ffffffffffffffffffffffffffffffffffffffff16815f015f6101000a81548173ffffffffffffffffffffffffffffffffffffffff021916908373ffffffffffffffffffffffffffffffffffffffff1602179055506001820181600101908161255891906148ea565b50905050600182815481106125705761256f613d7b565b5b905f5260205f2090600302016001015f81548092919061258f90613dd5565b919050555050505050565b5f805b6001805490508110156126815761265c600182815481106125c1576125c0613d7b565b5b905f5260205f2090600302015f0180546125da90613cd3565b80601f016020809104026020016040519081016040528092919081815260200182805461260690613cd3565b80156126515780601f1061262857610100808354040283529160200191612651565b820191905f5260205f20905b81548152906001019060200180831161263457829003601f168201915b505050505084612687565b1561266e576001915060018054905090505b808061267990613dd5565b91505061259d565b50919050565b5f816040516020016126999190614a09565b60405160208183030381529060405280519060200120836040516020016126c09190614a09565b6040516020818303038152906040528051906020012014905092915050565b5f805b6003805490508110156127c25761279d6003828154811061270657612705613d7b565b5b905f5260205f20015f01805461271b90613cd3565b80601f016020809104026020016040519081016040528092919081815260200182805461274790613cd3565b80156127925780601f1061276957610100808354040283529160200191612792565b820191905f5260205f20905b81548152906001019060200180831161277557829003601f168201915b505050505084612687565b156127af576001915060038054905090505b80806127ba90613dd5565b9150506126e2565b50919050565b5f806127d38561289c565b90505f6127df85612987565b90505f5b60028054905081101561289257826002828154811061280557612804613d7b565b5b905f5260205f2090600402015f01541480156128435750816002828154811061283157612830613d7b565b5b905f5260205f20906004020160010154145b80156128715750846002828154811061285f5761285e613d7b565b5b905f5260205f20906004020160030154145b1561287f5760019350612892565b808061288a90613dd5565b9150506127e3565b5050509392505050565b5f805f90505b6003805490508110156129815761295d600382815481106128c6576128c5613d7b565b5b905f5260205f20015f0180546128db90613cd3565b80601f016020809104026020016040519081016040528092919081815260200182805461290790613cd3565b80156129525780601f1061292957610100808354040283529160200191612952565b820191905f5260205f20905b81548152906001019060200180831161293557829003601f168201915b505050505084612687565b1561296e5780915060038054905090505b808061297990613dd5565b9150506128a2565b50919050565b5f805f90505b600180549050811015612a7057612a4c600182815481106129b1576129b0613d7b565b5b905f5260205f2090600302015f0180546129ca90613cd3565b80601f01602080910402602001604051908101604052809291908181526020018280546129f690613cd3565b8015612a415780601f10612a1857610100808354040283529160200191612a41565b820191905f5260205f20905b815481529060010190602001808311612a2457829003601f168201915b505050505084612687565b15612a5d5780915060018054905090505b8080612a6890613dd5565b91505061298d565b50919050565b5f805b5f80549050811015612b17578273ffffffffffffffffffffffffffffffffffffffff165f8281548110612aaf57612aae613d7b565b5b905f5260205f2090600202015f015f9054906101000a900473ffffffffffffffffffffffffffffffffffffffff1673ffffffffffffffffffffffffffffffffffffffff1603612b0457600191505f8054905090505b8080612b0f90613dd5565b915050612a79565b50919050565b60045f9054906101000a900473ffffffffffffffffffffffffffffffffffffffff1673ffffffffffffffffffffffffffffffffffffffff163373ffffffffffffffffffffffffffffffffffffffff1614612bac576040517f08c379a0000000000000000000000000000000000000000000000000000000008152600401612ba390613e66565b60405180910390fd5b612bb582612a76565b612bf4576040517f08c379a0000000000000000000000000000000000000000000000000000000008152600401612beb906148b7565b60405180910390fd5b612bfd8161259a565b612c3c576040517f08c379a0000000000000000000000000000000000000000000000000000000008152600401612c3390614365565b60405180910390fd5b612c458261306c565b15612c85576040517f08c379a0000000000000000000000000000000000000000000000000000000008152600401612c7c90614a69565b60405180910390fd5b5f612c8f82612987565b90505f612c9b84612dca565b90505f8181548110612cb057612caf613d7b565b5b905f5260205f20906002020160018381548110612cd057612ccf613d7b565b5b905f5260205f2090600302016002015f60018581548110612cf457612cf3613d7b565b5b905f5260205f2090600302016001015481526020019081526020015f205f82015f9054906101000a900473ffffffffffffffffffffffffffffffffffffffff16815f015f6101000a81548173ffffffffffffffffffffffffffffffffffffffff021916908373ffffffffffffffffffffffffffffffffffffffff16021790555060018201816001019081612d8891906148ea565b5090505060018281548110612da057612d9f613d7b565b5b905f5260205f2090600302016001015f815480929190612dbf90613dd5565b919050555050505050565b5f805f90505b5f80549050811015612e6d578273ffffffffffffffffffffffffffffffffffffffff165f8281548110612e0657612e05613d7b565b5b905f5260205f2090600202015f015f9054906101000a900473ffffffffffffffffffffffffffffffffffffffff1673ffffffffffffffffffffffffffffffffffffffff1603612e5a578091505f8054905090505b8080612e6590613dd5565b915050612dd0565b50919050565b612e7c81612a76565b612ebb576040517f08c379a0000000000000000000000000000000000000000000000000000000008152600401612eb290614ad1565b60405180910390fd5b5f5b600180549050811015613068575f5b60018281548110612ee057612edf613d7b565b5b905f5260205f20906003020160010154811015613054578273ffffffffffffffffffffffffffffffffffffffff1660018381548110612f2257612f21613d7b565b5b905f5260205f2090600302016002015f8381526020019081526020015f205f015f9054906101000a900473ffffffffffffffffffffffffffffffffffffffff1673ffffffffffffffffffffffffffffffffffffffff1603613041575f60018381548110612f9257612f91613d7b565b5b905f5260205f2090600302016002015f8381526020019081526020015f205f015f6101000a81548173ffffffffffffffffffffffffffffffffffffffff021916908373ffffffffffffffffffffffffffffffffffffffff16021790555060405180602001604052805f8152506001838154811061301257613011613d7b565b5b905f5260205f2090600302016002015f8381526020019081526020015f20600101908161303f91906140bc565b505b808061304c90613dd5565b915050612ecc565b50808061306090613dd5565b915050612ebd565b5050565b5f805b600180549050811015613163575f5b6001828154811061309257613091613d7b565b5b905f5260205f2090600302016001015481101561314f578373ffffffffffffffffffffffffffffffffffffffff16600183815481106130d4576130d3613d7b565b5b905f5260205f2090600302016002015f8381526020019081526020015f205f015f9054906101000a900473ffffffffffffffffffffffffffffffffffffffff1673ffffffffffffffffffffffffffffffffffffffff160361313c576001925060018054905091505b808061314790613dd5565b91505061307e565b50808061315b90613dd5565b91505061306f565b50919050565b60405180604001604052805f73ffffffffffffffffffffffffffffffffffffffff168152602001606081525090565b5080546131a490613cd3565b5f825580601f106131b557506131d2565b601f0160209004905f5260205f20908101906131d191906131d5565b5b50565b5b808211156131ec575f815f9055506001016131d6565b5090565b5f81519050919050565b5f82825260208201905092915050565b5f819050602082019050919050565b5f81519050919050565b5f82825260208201905092915050565b5f5b83811015613250578082015181840152602081019050613235565b5f8484015250505050565b5f601f19601f8301169050919050565b5f61327582613219565b61327f8185613223565b935061328f818560208601613233565b6132988161325b565b840191505092915050565b5f602083015f8301518482035f8601526132bd828261326b565b9150508091505092915050565b5f6132d583836132a3565b905092915050565b5f602082019050919050565b5f6132f3826131f0565b6132fd81856131fa565b93508360208202850161330f8561320a565b805f5b8581101561334a578484038952815161332b85826132ca565b9450613336836132dd565b925060208a01995050600181019050613312565b50829750879550505050505092915050565b5f6020820190508181035f83015261337481846132e9565b905092915050565b5f604051905090565b5f80fd5b5f80fd5b5f80fd5b5f80fd5b7f4e487b71000000000000000000000000000000000000000000000000000000005f52604160045260245ffd5b6133cb8261325b565b810181811067ffffffffffffffff821117156133ea576133e9613395565b5b80604052505050565b5f6133fc61337c565b905061340882826133c2565b919050565b5f67ffffffffffffffff82111561342757613426613395565b5b6134308261325b565b9050602081019050919050565b828183375f83830152505050565b5f61345d6134588461340d565b6133f3565b90508281526020810184848401111561347957613478613391565b5b61348484828561343d565b509392505050565b5f82601f8301126134a05761349f61338d565b5b81356134b084826020860161344b565b91505092915050565b5f602082840312156134ce576134cd613385565b5b5f82013567ffffffffffffffff8111156134eb576134ea613389565b5b6134f78482850161348c565b91505092915050565b5f81519050919050565b5f82825260208201905092915050565b5f819050602082019050919050565b5f73ffffffffffffffffffffffffffffffffffffffff82169050919050565b5f61355282613529565b9050919050565b61356281613548565b82525050565b5f604083015f83015161357d5f860182613559565b5060208301518482036020860152613595828261326b565b9150508091505092915050565b5f6135ad8383613568565b905092915050565b5f602082019050919050565b5f6135cb82613500565b6135d5818561350a565b9350836020820285016135e78561351a565b805f5b85811015613622578484038952815161360385826135a2565b945061360e836135b5565b925060208a019950506001810190506135ea565b50829750879550505050505092915050565b5f6020820190508181035f83015261364c81846135c1565b905092915050565b5f81519050919050565b5f82825260208201905092915050565b5f819050602082019050919050565b5f613688838361326b565b905092915050565b5f602082019050919050565b5f6136a682613654565b6136b0818561365e565b9350836020820285016136c28561366e565b805f5b858110156136fd57848403895281516136de858261367d565b94506136e983613690565b925060208a019950506001810190506136c5565b50829750879550505050505092915050565b5f6020820190508181035f830152613727818461369c565b905092915050565b5f60ff82169050919050565b6137448161372f565b811461374e575f80fd5b50565b5f8135905061375f8161373b565b92915050565b5f819050919050565b61377781613765565b8114613781575f80fd5b50565b5f813590506137928161376e565b92915050565b5f805f80608085870312156137b0576137af613385565b5b5f85013567ffffffffffffffff8111156137cd576137cc613389565b5b6137d98782880161348c565b945050602085013567ffffffffffffffff8111156137fa576137f9613389565b5b6138068782880161348c565b935050604061381787828801613751565b925050606061382887828801613784565b91505092959194509250565b61383d81613548565b8114613847575f80fd5b50565b5f8135905061385881613834565b92915050565b5f6020828403121561387357613872613385565b5b5f6138808482850161384a565b91505092915050565b5f805f606084860312156138a05761389f613385565b5b5f84013567ffffffffffffffff8111156138bd576138bc613389565b5b6138c98682870161348c565b935050602084013567ffffffffffffffff8111156138ea576138e9613389565b5b6138f68682870161348c565b925050604061390786828701613784565b9150509250925092565b7f4e487b71000000000000000000000000000000000000000000000000000000005f52602160045260245ffd5b6004811061394f5761394e613911565b5b50565b5f81905061395f8261393e565b919050565b5f61396e82613952565b9050919050565b61397e81613964565b82525050565b5f6020820190506139975f830184613975565b92915050565b5f80604083850312156139b3576139b2613385565b5b5f83013567ffffffffffffffff8111156139d0576139cf613389565b5b6139dc8582860161348c565b92505060206139ed8582860161384a565b9150509250929050565b5f81519050919050565b5f82825260208201905092915050565b5f819050602082019050919050565b613a2981613964565b82525050565b5f613a3a8383613a20565b60208301905092915050565b5f602082019050919050565b5f613a5c826139f7565b613a668185613a01565b9350613a7183613a11565b805f5b83811015613aa1578151613a888882613a2f565b9750613a9383613a46565b925050600181019050613a74565b5085935050505092915050565b5f81519050919050565b5f82825260208201905092915050565b5f819050602082019050919050565b613ae081613765565b82525050565b5f613af18383613ad7565b60208301905092915050565b5f602082019050919050565b5f613b1382613aae565b613b1d8185613ab8565b9350613b2883613ac8565b805f5b83811015613b58578151613b3f8882613ae6565b9750613b4a83613afd565b925050600181019050613b2b565b5085935050505092915050565b5f6080820190508181035f830152613b7d818761369c565b90508181036020830152613b91818661369c565b90508181036040830152613ba58185613a52565b90508181036060830152613bb98184613b09565b905095945050505050565b5f805f60608486031215613bdb57613bda613385565b5b5f84013567ffffffffffffffff811115613bf857613bf7613389565b5b613c048682870161348c565b9350506020613c158682870161384a565b925050604084013567ffffffffffffffff811115613c3657613c35613389565b5b613c428682870161348c565b9150509250925092565b5f8060408385031215613c6257613c61613385565b5b5f613c6f8582860161384a565b925050602083013567ffffffffffffffff811115613c9057613c8f613389565b5b613c9c8582860161348c565b9150509250929050565b7f4e487b71000000000000000000000000000000000000000000000000000000005f52602260045260245ffd5b5f6002820490506001821680613cea57607f821691505b602082108103613cfd57613cfc613ca6565b5b50919050565b5f82825260208201905092915050565b7f5468617420726f6c6520646f65736e27742065786973740000000000000000005f82015250565b5f613d47601783613d03565b9150613d5282613d13565b602082019050919050565b5f6020820190508181035f830152613d7481613d3b565b9050919050565b7f4e487b71000000000000000000000000000000000000000000000000000000005f52603260045260245ffd5b7f4e487b71000000000000000000000000000000000000000000000000000000005f52601160045260245ffd5b5f613ddf82613765565b91507fffffffffffffffffffffffffffffffffffffffffffffffffffffffffffffffff8203613e1157613e10613da8565b5b600182019050919050565b7f4f7065726174696f6e206f6e6c792076616c696420666f722061646d696e00005f82015250565b5f613e50601e83613d03565b9150613e5b82613e1c565b602082019050919050565b5f6020820190508181035f830152613e7d81613e44565b9050919050565b7f5468617420726f6c6520616c72656164792065786973747300000000000000005f82015250565b5f613eb8601883613d03565b9150613ec382613e84565b602082019050919050565b5f6020820190508181035f830152613ee581613eac565b9050919050565b5f613ef682613765565b9150613f0183613765565b9250828203905081811115613f1957613f18613da8565b5b92915050565b5f819050815f5260205f209050919050565b5f6020601f8301049050919050565b5f82821b905092915050565b5f60088302613f7b7fffffffffffffffffffffffffffffffffffffffffffffffffffffffffffffffff82613f40565b613f858683613f40565b95508019841693508086168417925050509392505050565b5f819050919050565b5f613fc0613fbb613fb684613765565b613f9d565b613765565b9050919050565b5f819050919050565b613fd983613fa6565b613fed613fe582613fc7565b848454613f4c565b825550505050565b5f90565b614001613ff5565b61400c818484613fd0565b505050565b5b8181101561402f576140245f82613ff9565b600181019050614012565b5050565b601f8211156140745761404581613f1f565b61404e84613f31565b8101602085101561405d578190505b61407161406985613f31565b830182614011565b50505b505050565b5f82821c905092915050565b5f6140945f1984600802614079565b1980831691505092915050565b5f6140ac8383614085565b9150826002028217905092915050565b6140c582613219565b67ffffffffffffffff8111156140de576140dd613395565b5b6140e88254613cd3565b6140f3828285614033565b5f60209050601f831160018114614124575f8415614112578287015190505b61411c85826140a1565b865550614183565b601f19841661413286613f1f565b5f5b8281101561415957848901518255600182019150602085019450602081019050614134565b868310156141765784890151614172601f891682614085565b8355505b6001600288020188555050505b505050505050565b5f61419582613219565b61419f8185613d03565b93506141af818560208601613233565b6141b88161325b565b840191505092915050565b5f6020820190508181035f8301526141db818461418b565b905092915050565b7f54686174206f626a65637420616c7265616479206578697374730000000000005f82015250565b5f614217601a83613d03565b9150614222826141e3565b602082019050919050565b5f6020820190508181035f8301526142448161420b565b9050919050565b7f54686174207065726d697373696f6e20616c72656164792065786973747300005f82015250565b5f61427f601e83613d03565b915061428a8261424b565b602082019050919050565b5f6020820190508181035f8301526142ac81614273565b9050919050565b7f4f626a65637420646f65736e27742065786973740000000000000000000000005f82015250565b5f6142e7601483613d03565b91506142f2826142b3565b602082019050919050565b5f6020820190508181035f830152614314816142db565b9050919050565b7f526f6c6520646f65736e277420657869737400000000000000000000000000005f82015250565b5f61434f601283613d03565b915061435a8261431b565b602082019050919050565b5f6020820190508181035f83015261437c81614343565b9050919050565b7f54686174207065726d697373696f6e207479706520646f65736e2774206578695f8201527f7374000000000000000000000000000000000000000000000000000000000000602082015250565b5f6143dd602283613d03565b91506143e882614383565b604082019050919050565b5f6020820190508181035f83015261440a816143d1565b9050919050565b61441a81613765565b82525050565b5f6080820190508181035f830152614438818761418b565b9050818103602083015261444c818661418b565b905061445b6040830185613975565b6144686060830184614411565b95945050505050565b61447a81613548565b82525050565b5f6020820190506144935f830184614471565b92915050565b7f6f626a65637420646f65736e27742065786973740000000000000000000000005f82015250565b5f6144cd601483613d03565b91506144d882614499565b602082019050919050565b5f6020820190508181035f8301526144fa816144c1565b9050919050565b7f726f6c6520646f65736e277420657869737400000000000000000000000000005f82015250565b5f614535601283613d03565b915061454082614501565b602082019050919050565b5f6020820190508181035f83015261456281614529565b9050919050565b7f7065726d697373696f6e20646f65736e277420657869737400000000000000005f82015250565b5f61459d601883613d03565b91506145a882614569565b602082019050919050565b5f6020820190508181035f8301526145ca81614591565b9050919050565b7f5065726d697373696f6e206e6f7420666f756e640000000000000000000000005f82015250565b5f614605601483613d03565b9150614610826145d1565b602082019050919050565b5f6020820190508181035f830152614632816145f9565b9050919050565b7f54686174207065726d697373696f6e20646f65736e27742065786973740000005f82015250565b5f61466d601d83613d03565b915061467882614639565b602082019050919050565b5f6020820190508181035f83015261469a81614661565b9050919050565b7f4e487b71000000000000000000000000000000000000000000000000000000005f52603160045260245ffd5b5f6060820190508181035f8301526146e6818661418b565b905081810360208301526146fa818561418b565b90506147096040830184614411565b949350505050565b7f54686174207573657220616c72656164792065786973747320286164647265735f8201527f7320696e20757365290000000000000000000000000000000000000000000000602082015250565b5f61476b602983613d03565b915061477682614711565b604082019050919050565b5f6020820190508181035f8301526147988161475f565b9050919050565b7f64656661756c74557365720000000000000000000000000000000000000000005f82015250565b5f6147d3600b83613d03565b91506147de8261479f565b602082019050919050565b5f6060820190506147fc5f830185614471565b818103602083015261480e818461418b565b90508181036040830152614821816147c7565b90509392505050565b5f60608201905061483d5f830186614471565b818103602083015261484f818561418b565b90508181036040830152614863818461418b565b9050949350505050565b7f5573657220646f65736e277420657869737400000000000000000000000000005f82015250565b5f6148a1601283613d03565b91506148ac8261486d565b602082019050919050565b5f6020820190508181035f8301526148ce81614895565b9050919050565b5f815490506148e381613cd3565b9050919050565b8181036148f85750506149cd565b614901826148d5565b67ffffffffffffffff81111561491a57614919613395565b5b6149248254613cd3565b61492f828285614033565b5f601f83116001811461495c575f841561494a578287015490505b61495485826140a1565b8655506149c6565b601f19841661496a87613f1f565b965061497586613f1f565b5f5b8281101561499c57848901548255600182019150600185019450602081019050614977565b868310156149b957848901546149b5601f891682614085565b8355505b6001600288020188555050505b5050505050505b565b5f81905092915050565b5f6149e382613219565b6149ed81856149cf565b93506149fd818560208601613233565b80840191505092915050565b5f614a1482846149d9565b915081905092915050565b7f54686174207573657220616c726561647920686173206120726f6c65000000005f82015250565b5f614a53601c83613d03565b9150614a5e82614a1f565b602082019050919050565b5f6020820190508181035f830152614a8081614a47565b9050919050565b7f54686174207573657220646f65736e27742065786973740000000000000000005f82015250565b5f614abb601783613d03565b9150614ac682614a87565b602082019050919050565b5f6020820190508181035f830152614ae881614aaf565b905091905056fea26469706673582212205d215da7a6b1c6dea46e27746fb1ed7b34f76eaae1f03144c040632d1670fdfc64736f6c63430008150033",
  "immutableReferences": {},
  "source": "// SPDX-License-Identifier: MIT\npragma solidity >=0.8.0;\n\n/**\n* @title RBAC\n* @author Ismael Rabanal Martn, Eugenio Romero Ciudad\n* @notice Implementation of a RBAC contract. Updates from Solidity 0.6.0 to 0.8.0 by Eugenio Romero Ciudad\n*/\n\nimport \"./Structs.sol\";\n\ncontract RBAC {\n\n    event UserCreated(address id, string userName, string roleName);\n    event RoleCreated(string name);\n    event ProtectedObjectCreated(string name);\n    event PermissionCreated(string objectName, string roleName, sharedStructs.permissionTypes permissionName, uint256 expireDate);\n    event UserDeleted(address id);\n    event RoleDeleted(string name);\n    event ProtectedObjectDeleted(string name);\n    event PermissionDeleted(string objectName, string roleName, uint256 expireDate);\n\n    struct Role {\n        string name;\n        uint256 membersNumber;\n        mapping(uint256 => sharedStructs.User) members;\n    }\n\n    struct Permission {\n        uint256 objectId;  // ID del objeto protegido\n        uint256 roleId;    // ID del rol\n        sharedStructs.permissionTypes tipo;\n        uint256 expireDate;\n    }\n\n    struct ProtectedObject {\n        string name;\n    }\n\n    sharedStructs.User[] private users;\n    Role[] private roles;\n    Permission[] private perm;\n    ProtectedObject[] private protectedObjects;\n    address admin;\n\n    constructor() {\n        admin = msg.sender;\n    }\n\n    modifier isAdmin() {\n        require(msg.sender == admin, \"Operation only valid for admin\");\n        _;\n    }\n\n    function getAllUsers() public view returns (sharedStructs.User[] memory){\n        return users;\n    }\n    \n    function getAllRolesDescriptions() public view returns (string[] memory){\n        string[] memory names = new string[](roles.length);\n        for (uint256 i = 0; i < roles.length; i++){\n            names[i] = (roles[i].name);\n        }\n        return names;\n    }\n    \n    function getAllUsersFromRole(string memory roleName) public view returns (sharedStructs.User[] memory){\n        require(roleExists(roleName), \"That role doesn't exist\");\n        uint256 idRole;\n        for(uint256 i = 0; i < roles.length; i++){\n            if(compareStrings(roles[i].name, roleName)){\n                idRole = i;\n                i = roles.length;\n            }\n        }\n        sharedStructs.User[] memory roleUsers = new sharedStructs.User[](roles[idRole].membersNumber);\n        for(uint i = 0; i < roles[idRole].membersNumber; i++){\n            roleUsers[i] = roles[idRole].members[i];\n        }\n        return roleUsers;\n    }\n  \n    \n    function getAllPermissions() public view returns (string[] memory, string[] memory, sharedStructs.permissionTypes[] memory, uint256[] memory) {\n        string[] memory objectNames = new string[](perm.length);\n        string[] memory roleNames = new string[](perm.length);\n        sharedStructs.permissionTypes[] memory permissionTypes = new sharedStructs.permissionTypes[](perm.length);\n        uint256[] memory expireDates = new uint256[](perm.length);\n\n        for (uint256 i = 0; i < perm.length; i++) {\n            objectNames[i] = protectedObjects[perm[i].objectId].name;\n            roleNames[i] = roles[perm[i].roleId].name;\n            permissionTypes[i] = perm[i].tipo;\n            expireDates[i] = perm[i].expireDate;\n        }\n\n        return (objectNames, roleNames, permissionTypes, expireDates);\n    }\n\n    \n    function getAllProtectedObjects() public view returns (ProtectedObject[] memory){\n        return protectedObjects;\n    }\n    \n    function getIdUser(address userAddress) private view returns(uint256 idUser){\n        for (uint256 i = 0; i < users.length; i++) {\n            if (users[i].id == userAddress) {\n                idUser = i;\n                i = users.length;\n\n            }\n        }\n        return idUser;\n    }\n    function getIdRole(string memory roleName) private view returns(uint256 idRole){\n        for (uint256 i = 0; i < roles.length; i++) {\n            if (compareStrings(roles[i].name, roleName)) {\n                idRole = i;\n                i = roles.length;\n\n            }\n        }\n        return idRole;\n    }\n    \n    function getIdObject(string memory objectName) private view returns(uint256 idObject){\n        for (uint256 i = 0; i < protectedObjects.length; i++) {\n            if (compareStrings(protectedObjects[i].name, objectName)) {\n                idObject = i;\n                i = protectedObjects.length;\n            }\n        }\n        return idObject;\n    }\n    \n    function roleExists(string memory roleName) private view returns(bool exists){\n        exists = false;\n        for (uint256 i = 0; i < roles.length; i++) {\n            if (compareStrings(roles[i].name, roleName)) {\n                exists = true;\n                i = roles.length;\n            }\n        }\n        return exists;\n    }\n    \n    function objectExists(string memory objectName) private view returns(bool exists){\n        exists = false;\n        for (uint256 i = 0; i < protectedObjects.length; i++) {\n            if (compareStrings(protectedObjects[i].name, objectName)) {\n                exists = true;\n                i = protectedObjects.length;\n            }\n        }\n        return exists;\n    }\n    \n    function userExists(address userAddress) private view returns(bool exists){\n        exists = false;\n        for (uint256 i = 0; i < users.length; i++) {\n            if (users[i].id == userAddress) {\n                exists = true;\n                i = users.length;\n            }\n        }\n        return exists;\n    }\n    \n    function permissionExists(string memory objectName, string memory roleName, uint256 expireDate) private view returns(bool exists) {\n        exists = false;\n        uint256 idObject = getIdObject(objectName);\n        uint256 idRole = getIdRole(roleName);\n        for (uint256 i = 0; i < perm.length; i++) {\n            if (perm[i].objectId == idObject && perm[i].roleId == idRole && perm[i].expireDate == expireDate) {\n                exists = true;\n                break;\n            }\n        }\n        return exists;\n    }\n\n    \n    function addUser(string memory userName, address id, string memory roleName) public isAdmin{\n        require(!userExists(id), \"That user already exists (address in use)\");\n        users.push(sharedStructs.User({id: id, name: userName}));\n        if(roleExists(roleName)){\n            addUserToRole(id, roleName);\n        }else{\n            addRole(roleName);\n            addUserToRole(id, roleName);\n        }\n        emit UserCreated(id, userName, roleName);\n        \n        \n    }\n    \n    //If no role is passed the new user is assigned the role defaultUser.\n    function addUser(string memory userName, address id) public isAdmin{\n        require(!userExists(id), \"That user already exists (address in use)\");\n        users.push(sharedStructs.User({id: id, name: userName}));\n        if(roleExists(\"defaultUser\")){\n            addUserToRole(id, \"defaultUser\");\n        }else{\n            addRole(\"defaultUser\");\n            addUserToRole(id, \"defaultUser\");\n        }\n        emit UserCreated(id, userName, \"defaultUser\");\n        \n        \n    }\n\n    function addRole(string memory roleName) public isAdmin{\n        require(!roleExists(roleName), \"That role already exists\");\n        // Aade un nuevo elemento al array de roles en el almacenamiento\n        roles.push();\n        \n        // Obtn una referencia al nuevo rol en el almacenamiento\n        Role storage newRole = roles[roles.length - 1];\n        \n        // Asigna los valores a los campos de la estructura\n        newRole.name = roleName;\n        newRole.membersNumber = 0;\n        \n        emit RoleCreated(roleName);\n    }\n    \n    function hasRole(address userAddress) private view returns(bool exists) {\n        exists = false;\n        for (uint256 i = 0; i < roles.length; i++) {\n            for(uint256 j = 0; j < roles[i].membersNumber; j++){\n                if(roles[i].members[j].id == userAddress){\n                    exists = true;\n                    i = roles.length;\n                }\n            }\n        }\n        return exists;\n    }\n    \n    function addUserToRole(address userAddress, string memory roleName) private isAdmin{\n        require(userExists(userAddress), \"User doesn't exist\");\n        require(roleExists(roleName), \"Role doesn't exist\");\n        require(!hasRole(userAddress), \"That user already has a role\");\n        uint256 idRole = getIdRole(roleName);\n        uint256 idUser = getIdUser(userAddress);\n        \n        roles[idRole].members[roles[idRole].membersNumber] = users[idUser];\n        roles[idRole].membersNumber++;\n    }\n\n    function changeUserRole(address userAddress, string memory roleName) public isAdmin\n    {\n        require(userExists(userAddress), \"User doesn't exist\");\n        require(roleExists(roleName), \"Role doesn't exist\");\n        uint256 idRole = getIdRole(roleName);\n        uint256 idUser = getIdUser(userAddress);\n        \n        deleteUserFromRole(userAddress);\n        roles[idRole].members[roles[idRole].membersNumber] = users[idUser];\n        roles[idRole].membersNumber++;\n    }\n    \n    function addProtectedObject(string memory objectName) public isAdmin {\n        require(!objectExists(objectName), \"That object already exists\");\n        protectedObjects.push(ProtectedObject({name: objectName}));\n        emit ProtectedObjectCreated(objectName);\n    }\n\n    function addPermission(string memory objectName, string memory roleName, uint8 tipo, uint256 expireDate) public isAdmin {\n        require(!permissionExists(objectName, roleName, expireDate), \"That permission already exists\");\n        require(objectExists(objectName), \"Object doesn't exist\");\n        require(roleExists(roleName), \"Role doesn't exist\");\n        require(tipo <= 4, \"That permission type doesn't exist\");\n\n        uint256 idObject = getIdObject(objectName);\n        uint256 idRole = getIdRole(roleName);\n\n        perm.push(Permission({\n            objectId: idObject,\n            roleId: idRole,\n            tipo: sharedStructs.permissionTypes(tipo),\n            expireDate: expireDate\n        }));\n\n        emit PermissionCreated(objectName, roleName, sharedStructs.permissionTypes(tipo), expireDate);\n    }\n\n\n    function deleteUser(address userAddress) public isAdmin {\n        require(userExists(userAddress));\n        for (uint256 i = 0; i < users.length; i++) {\n            if (users[i].id == userAddress) {\n                delete users[i];\n                i = users.length;\n            }\n        }\n        emit UserDeleted(userAddress);\n    }\n    function deleteRole(string memory roleName) public isAdmin {\n        require(roleExists(roleName), \"That role doesn't exist\");\n        for (uint256 i = 0; i < roles.length; i++) {\n            if (compareStrings(roles[i].name, roleName)) {\n                delete roles[i];\n                i = roles.length;\n            }\n        }\n        emit RoleDeleted(roleName);\n    }\n    \n    function deletePermission(string memory objectName, string memory roleName, uint256 expireDate) public isAdmin {\n        require(permissionExists(objectName, roleName, expireDate), \"That permission doesn't exist\");\n        uint256 idObject = getIdObject(objectName);\n        uint256 idRole = getIdRole(roleName);\n        for (uint256 i = 0; i < perm.length; i++) {\n            if (perm[i].objectId == idObject && perm[i].roleId == idRole && perm[i].expireDate == expireDate) {\n                // Mover el ltimo elemento a la posicin del elemento a eliminar\n                perm[i] = perm[perm.length - 1];\n                // Eliminar el ltimo elemento\n                perm.pop();\n                emit PermissionDeleted(objectName, roleName, expireDate);\n                break;\n            }\n        }\n    }\n\n    function deleteUserFromRole(address userAddress) private{\n        require(userExists(userAddress), \"That user doesn't exist\");\n\n        for (uint256 i = 0; i < roles.length; i++) {\n            for(uint256 j = 0; j < roles[i].membersNumber; j++){\n                if(roles[i].members[j].id == userAddress){\n                    roles[i].members[j].id = address(0);\n                    roles[i].members[j].name = \"\";\n                }\n            }\n        }\n    }\n    \n    function deleteProtectedObject(string memory objectName) public isAdmin {\n        require(objectExists(objectName), \"object doesn't exist\");\n        for (uint256 i = 0; i < protectedObjects.length; i++) {\n            if (compareStrings(protectedObjects[i].name, objectName)) {\n                delete protectedObjects[i];\n                i = protectedObjects.length;\n            }\n        }\n        emit ProtectedObjectDeleted(objectName);\n    }\n\n    function askForPermission(string memory objectName, string memory roleName, uint256 expireDate) public view returns (sharedStructs.permissionTypes) {\n        require(objectExists(objectName), \"object doesn't exist\");\n        require(roleExists(roleName), \"role doesn't exist\");\n        require(permissionExists(objectName, roleName, expireDate), \"permission doesn't exist\");\n\n        uint256 idObject = getIdObject(objectName);\n        uint256 idRole = getIdRole(roleName);\n\n        for (uint256 i = 0; i < perm.length; i++) {\n            if (perm[i].objectId == idObject && perm[i].roleId == idRole && perm[i].expireDate == expireDate) {\n                return perm[i].tipo;\n            }\n        }\n\n        revert(\"Permission not found\");\n        }\n    \n    function compareStrings(string memory a, string memory b)\n        private\n        pure\n        returns (bool)\n    {\n        return (keccak256(abi.encodePacked((a))) ==\n            keccak256(abi.encodePacked((b))));\n\n    }\n}",
  "sourcePath": "/home/alarcos/Documentos/GitHub/ALBA-ethereum/Authenticator/contracts/RBAC.sol",
  "compiler": {
    "name": "solc",
    "version": "0.8.21+commit.d9974bed.Emscripten.clang"
  },
  "schemaVersion": "3.4.16",
  "updatedAt": "2024-09-26T09:06:45.015Z",
  "networkType": "ethereum",
  "devdoc": {
    "kind": "dev",
    "methods": {},
    "version": 1
  },
  "userdoc": {
    "kind": "user",
    "methods": {},
    "version": 1
  }
}