{
  "contractName": "TestAuthentication",
  "abi": [
    {
      "inputs": [
        {
          "internalType": "address",
          "name": "",
          "type": "address"
        }
      ],
      "name": "authorizedUsers",
      "outputs": [
        {
          "internalType": "bool",
          "name": "",
          "type": "bool"
        }
      ],
      "stateMutability": "view",
      "type": "function",
      "constant": true
    },
    {
      "inputs": [
        {
          "internalType": "address",
          "name": "user",
          "type": "address"
        }
      ],
      "name": "addAuthorizedUser",
      "outputs": [],
      "stateMutability": "nonpayable",
      "type": "function"
    },
    {
      "inputs": [],
      "name": "isAuthorized",
      "outputs": [
        {
          "internalType": "bool",
          "name": "",
          "type": "bool"
        }
      ],
      "stateMutability": "view",
      "type": "function",
      "constant": true
    }
  ],
  "bytecode": "0x608060405234801561000f575f80fd5b506102618061001d5f395ff3fe608060405234801561000f575f80fd5b506004361061003f575f3560e01c8063177d2a74146100435780631828983a1461005f57806357e6c2f41461008f575b5f80fd5b61005d600480360381019061005891906101cd565b6100ad565b005b610079600480360381019061007491906101cd565b610104565b6040516100869190610212565b60405180910390f35b610097610120565b6040516100a49190610212565b60405180910390f35b60015f808373ffffffffffffffffffffffffffffffffffffffff1673ffffffffffffffffffffffffffffffffffffffff1681526020019081526020015f205f6101000a81548160ff02191690831515021790555050565b5f602052805f5260405f205f915054906101000a900460ff1681565b5f805f3373ffffffffffffffffffffffffffffffffffffffff1673ffffffffffffffffffffffffffffffffffffffff1681526020019081526020015f205f9054906101000a900460ff16905090565b5f80fd5b5f73ffffffffffffffffffffffffffffffffffffffff82169050919050565b5f61019c82610173565b9050919050565b6101ac81610192565b81146101b6575f80fd5b50565b5f813590506101c7816101a3565b92915050565b5f602082840312156101e2576101e161016f565b5b5f6101ef848285016101b9565b91505092915050565b5f8115159050919050565b61020c816101f8565b82525050565b5f6020820190506102255f830184610203565b9291505056fea2646970667358221220a99a83a59f1c98e725d9e86c28797ba0cc7cbd2ada597e07dedea3203451093564736f6c63430008150033",
  "immutableReferences": {},
  "source": "// SPDX-License-Identifier: MIT\npragma solidity >=0.8.0;\n\ncontract TestAuthentication {\n    mapping(address => bool) public authorizedUsers;\n    \n    function addAuthorizedUser(address user) public {\n        authorizedUsers[user] = true;\n    }\n    \n    function isAuthorized() public view returns (bool) {\n        return authorizedUsers[msg.sender];\n    }\n}\n",
  "sourcePath": "/home/alarcos/Documentos/GitHub/ALBA-ethereum/TestAuthentication/contracts/TestAuthentication.sol",
  "compiler": {
    "name": "solc",
    "version": "0.8.21+commit.d9974bed.Emscripten.clang"
  },
  "schemaVersion": "3.4.16",
  "updatedAt": "2024-09-25T08:51:59.180Z",
  "networkType": "ethereum",
  "devdoc": {
    "kind": "dev",
    "methods": {},
    "version": 1
  },
  "userdoc": {
    "kind": "user",
    "methods": {},
    "version": 1
  }
}