{
  "contractName": "DocumentManagement",
  "abi": [
    {
      "anonymous": false,
      "inputs": [
        {
          "indexed": true,
          "internalType": "bytes32",
          "name": "id",
          "type": "bytes32"
        },
        {
          "indexed": false,
          "internalType": "bytes32",
          "name": "hash",
          "type": "bytes32"
        },
        {
          "indexed": false,
          "internalType": "address",
          "name": "owner",
          "type": "address"
        }
      ],
      "name": "DocumentAdded",
      "type": "event"
    },
    {
      "anonymous": false,
      "inputs": [
        {
          "indexed": true,
          "internalType": "bytes32",
          "name": "id",
          "type": "bytes32"
        },
        {
          "indexed": false,
          "internalType": "bytes32",
          "name": "newHash",
          "type": "bytes32"
        }
      ],
      "name": "DocumentUpdated",
      "type": "event"
    },
    {
      "inputs": [
        {
          "internalType": "bytes32",
          "name": "",
          "type": "bytes32"
        }
      ],
      "name": "documents",
      "outputs": [
        {
          "internalType": "bytes32",
          "name": "hash",
          "type": "bytes32"
        },
        {
          "internalType": "address",
          "name": "owner",
          "type": "address"
        },
        {
          "internalType": "uint256",
          "name": "timestamp",
          "type": "uint256"
        }
      ],
      "stateMutability": "view",
      "type": "function",
      "constant": true
    },
    {
      "inputs": [
        {
          "internalType": "bytes32",
          "name": "id",
          "type": "bytes32"
        },
        {
          "internalType": "bytes32",
          "name": "hash",
          "type": "bytes32"
        }
      ],
      "name": "addDocument",
      "outputs": [],
      "stateMutability": "nonpayable",
      "type": "function"
    },
    {
      "inputs": [
        {
          "internalType": "bytes32",
          "name": "id",
          "type": "bytes32"
        },
        {
          "internalType": "bytes32",
          "name": "newHash",
          "type": "bytes32"
        }
      ],
      "name": "updateDocument",
      "outputs": [],
      "stateMutability": "nonpayable",
      "type": "function"
    },
    {
      "inputs": [
        {
          "internalType": "bytes32",
          "name": "id",
          "type": "bytes32"
        },
        {
          "internalType": "bytes32",
          "name": "hash",
          "type": "bytes32"
        }
      ],
      "name": "verifyDocument",
      "outputs": [
        {
          "internalType": "bool",
          "name": "",
          "type": "bool"
        }
      ],
      "stateMutability": "view",
      "type": "function",
      "constant": true
    }
  ],
  "bytecode": "0x608060405234801561001057600080fd5b5061037e806100206000396000f3fe608060405234801561001057600080fd5b506004361061004c5760003560e01c806309173f9e146100515780632b2805db146100665780638fa9a8ce146100c657806393cec8c5146100f8575b600080fd5b61006461005f36600461030d565b61010b565b005b61009e61007436600461032f565b60006020819052908152604090208054600182015460029092015490916001600160a01b03169083565b604080519384526001600160a01b039092166020840152908201526060015b60405180910390f35b6100e86100d436600461030d565b600091825260208290526040909120541490565b60405190151581526020016100bd565b61006461010636600461030d565b610200565b6000828152602081905260409020541561016c5760405162461bcd60e51b815260206004820152601760248201527f446f63756d656e7420616c72656164792065786973747300000000000000000060448201526064015b60405180910390fd5b604080516060810182528281523360208083018281524284860190815260008881528084528690209451855590516001850180546001600160a01b0319166001600160a01b039092169190911790555160029093019290925582518481529182015283917f73fd75b829bbe1d73fc07416afd43dc6c1f86f54765b8299cb1fb5712410f58d91015b60405180910390a25050565b60008281526020819052604090205461025b5760405162461bcd60e51b815260206004820152601760248201527f446f63756d656e7420646f6573206e6f742065786973740000000000000000006044820152606401610163565b6000828152602081905260409020600101546001600160a01b031633146102c45760405162461bcd60e51b815260206004820152601e60248201527f4f6e6c79206f776e65722063616e2075706461746520646f63756d656e7400006044820152606401610163565b6000828152602081815260409182902083815542600290910155905182815283917fa6a8fe4bd02909931dc35d0fcb81b893aceb863c7cbe58793f4bf97cae7d0f6e91016101f4565b6000806040838503121561032057600080fd5b50508035926020909101359150565b60006020828403121561034157600080fd5b503591905056fea26469706673582212204622f8f85d768b333568c8db0848bc598c249a97e229e1a3bacab94d6956dc2b64736f6c634300080d0033",
  "immutableReferences": {},
  "source": "// SPDX-License-Identifier: MIT\npragma solidity ^0.8.0;\n\ncontract DocumentManagement {\n    struct Document {\n        bytes32 hash;\n        address owner;\n        uint256 timestamp;\n    }\n\n    mapping(bytes32 => Document) public documents;\n\n    event DocumentAdded(bytes32 indexed id, bytes32 hash, address owner);\n    event DocumentUpdated(bytes32 indexed id, bytes32 newHash);\n\n    function addDocument(bytes32 id, bytes32 hash) public {\n        require(documents[id].hash == bytes32(0), \"Document already exists\");\n        documents[id] = Document(hash, msg.sender, block.timestamp);\n        emit DocumentAdded(id, hash, msg.sender);\n    }\n\n    function updateDocument(bytes32 id, bytes32 newHash) public {\n        require(documents[id].hash != bytes32(0), \"Document does not exist\");\n        require(documents[id].owner == msg.sender, \"Only owner can update document\");\n        documents[id].hash = newHash;\n        documents[id].timestamp = block.timestamp;\n        emit DocumentUpdated(id, newHash);\n    }\n\n    function verifyDocument(bytes32 id, bytes32 hash) public view returns (bool) {\n        return documents[id].hash == hash;\n    }\n}\n",
  "sourcePath": "/home/alarcos/Documentos/GitHub/ALBA-ethereum/SERVIDOR/contracts/DocumentManagement.sol",
  "compiler": {
    "name": "solc",
    "version": "0.8.13+commit.abaa5c0e.Emscripten.clang"
  },
  "schemaVersion": "3.4.16",
  "updatedAt": "2024-10-10T09:23:58.918Z",
  "networkType": "ethereum",
  "devdoc": {
    "kind": "dev",
    "methods": {},
    "version": 1
  },
  "userdoc": {
    "kind": "user",
    "methods": {},
    "version": 1
  }
}